:020000040000FA
:100000000C9467010C948F010C948F010C948F0158
:100010000C948F010C948F010C948F010C948F0120
:100020000C948F010C948F010C948F010C948F0110
:100030000C948F010C948F010C948F010C948F0100
:100040000C942B210C948F010C949B210C94752102
:100050000C948F010C948F010C948F010C948F01E0
:100060000C94CD210C948F0100407A10F35A00A01B
:10007000724E18090010A5D4E80000E87648170071
:1000800000E40B54020000CA9A3B000000E1F505B1
:10009000000080969800000040420F000000A086FB
:1000A00001000000102700000000E803000000002D
:1000B0006400000000000A000000000001000000D1
:1000C00000002C76D888DC674F0823DFC1DFAE59EB
:1000D000E1B1B796E5E3E453C63AE651997696E87E
:1000E000E6C28426EB898C9B62ED407C6FFCEFBC02
:1000F0009C9F40F2BAA56FA5F490055A2AF75C932D
:100100006B6CF9676DC11BFCE0E40D47FEF520E662
:10011000B500D0ED902E0300943577050080841E45
:10012000080000204E0A000000C80C333333330FA0
:10013000986E12831141EF8D2114893BE65516CF3D
:10014000FEE6DB18D1844B381BF77C1D901DA4BB49
:10015000E424203284725E228100C9F124ECA1E5FE
:100160003D27626C6E6B696E66006D637500302EA4
:10017000302E300066772D7479706500544D504CE8
:1001800033506A525144617439006275696C64007D
:1001900041756720313920323032342031383A34D9
:1001A000303A353400626C796E6B00312E332E326A
:1001B00000682D6265617400343500627566662DD5
:1001C000696E003235360064657600417264756987
:1001D0006E6F20556E6F006370750041546D6567DA
:1001E000613332385000636F6E0057353130300064
:1001F000000000000000240027002A00000000008A
:10020000250028002B000000000023002600290004
:1002100004040404040404040202020202020303AC
:1002200003030303010204081020408001020408B4
:100230001020010204081020000000080002010044
:10024000000304070000000000000000920192017A
:100250009201920192019201920192019201920106
:1002600092019201920192019201920192019201F6
:1002700092019201920192019201920192019201E6
:100280009201920192019201920192010D0A910153
:10029000E7099101620A3E0A9101910191019101E0
:1002A00091019101910191019101910191019101BE
:1002B00091019101910191019101910191019101AE
:1002C0009101910191019101910191017B231124EF
:1002D0001FBECFEFD8E0DEBFCDBF12E0A0E0B1E09F
:1002E000E2E1F8E602C005900D92A638B107D9F711
:1002F00025E0A6E8B2E001C01D92A53CB207E1F7F7
:1003000011E0C7E6D1E004C02197FE010E94083346
:10031000C636D107C9F70E9470240C9407340C9498
:100320000000089508958CBD9DBD089520E3FC0153
:1003300020833296862F82958F706F706A3030F4EA
:10034000605D6293682F8111F5CF0895695CF9CFE4
:10035000FC01818D928D0895833081F028F48130E5
:1003600099F08230A9F008958730A9F08830C9F05B
:100370008430B1F4809180008F7D03C08091800033
:100380008F7780938000089584B58F7784BD08951A
:1003900084B58F7DFBCF8091B0008F778093B000C4
:1003A00008958091B0008F7DF9CF1F93CF93DF9395
:1003B000282F30E0F901E85CFD4F8491F901EC5DF4
:1003C000FD4FD491F901E05FFD4FC491CC23A9F01A
:1003D000162F81110E94AC01EC2FF0E0EE0FFF1FF1
:1003E000E450FE4FA591B4918FB7F894EC911111A0
:1003F00008C0D095DE23DC938FBFDF91CF911F9192
:100400000895DE2BF8CFCF93DF9390E0FC01EC5DF5
:10041000FD4F2491805F9D4FFC0184918823C9F09A
:1004200090E0880F991FFC01EE50FE4FA591B4910A
:10043000FC01E450FE4FC591D49161110DC09FB7EE
:10044000F8948C91209582238C938881282328838B
:100450009FBFDF91CF910895623051F49FB7F89418
:100460003C91822F809583238C93E8812E2BEFCFB4
:100470008FB7F894EC912E2B2C938FBFEACF1F935C
:10048000CF93DF93182FEB0161E00E9403022097C6
:1004900039F460E0812FDF91CF911F910C94D50149
:1004A000CF3FD10511F461E0F5CFE12FF0E0E85C3A
:1004B000FD4FE491E33031F140F4E130B1F0E2304E
:1004C000E1F0C038D1057CF7E4CFE73029F1E8301E
:1004D00059F1E430B1F78091800080628093800010
:1004E000D0938B00C0938A0004C084B5806884BD1B
:1004F000C7BDDF91CF911F91089584B5806284BDFF
:10050000C8BDF7CF80918000806880938000D09331
:100510008900C0938800EDCF8091B00080688093FF
:10052000B000C093B300E5CF8091B00080628093AB
:10053000B000C093B400DDCF8E3008F08E508770CD
:10054000806480937C0080917A00806480937A003C
:1005500080917A0086FDFCCF80917800909179009F
:1005600008953FB7F8948091B8039091B903A09192
:10057000BA03B091BB0326B5A89B05C02F3F19F065
:100580000196A11DB11D3FBFBA2FA92F982F882713
:10059000BC01CD01620F711D811D911D42E0660FEE
:1005A000771F881F991F4A95D1F708958F929F92C0
:1005B000AF92BF92CF92DF92EF92FF926B017C01DC
:1005C0000E94B1024B015C01C114D104E104F104A9
:1005D000B9F00E94B102681979098A099B09683E3D
:1005E00073408105910580F321E0C21AD108E1082A
:1005F000F10888EE880E83E0981EA11CB11CE4CFA0
:10060000FF90EF90DF90CF90BF90AF909F908F9032
:1006100008952FB7F8946091B4037091B503809159
:10062000B6039091B7032FBF0895089508954F9290
:100630005F926F927F92AF92BF92CF92DF92EF92D2
:10064000FF920F931F93CF93DF93EC016B017B011C
:10065000E40EF51E8B015801AC18BD080E151F05E0
:1006600011F10E940903688779878A879B87E8814F
:10067000F9810284F385E02DCE01099597FF23C00F
:100680000E940903488459846A847B84641975092B
:10069000860997094C805D806E807F8064157505A2
:1006A0008605970520F3C501DF91CF911F910F912A
:1006B000FF90EF90DF90CF90BF90AF907F906F90C2
:1006C0005F904F900895F80181938F01C4CFAF924E
:1006D000BF92CF92DF92EF92FF920F931F93CF932F
:1006E000DF936C017B018B01040F151FEB015E0191
:1006F000AE18BF08C017D10759F06991D601ED9126
:10070000FC910190F081E02DC6010995892B79F7C4
:10071000C501DF91CF911F910F91FF90EF90DF9076
:10072000CF90BF90AF900895FC01538D448D252F3D
:1007300030E0842F90E0821B930B541710F0CF967B
:10074000089501970895FC01918D828D981761F0AD
:10075000A28DAE0FBF2FB11D5D968C91928D9F5FC4
:100760009F73928F90E008958FEF9FEF0895FC01A3
:10077000918D828D981731F0828DE80FF11D858D56
:1007800090E008958FEF9FEF0895FC01918D228DE9
:10079000892F90E0805C9F4F821B91098F7399276E
:1007A000089589ED93E00E94C50321E0892B09F4A7
:1007B00020E0822F089580E090E0892B29F00E94AC
:1007C000D10381110C9400000895FC01A48DA80FA1
:1007D000B92FB11DA35ABF4F2C91848D90E0019683
:1007E0008F739927848FA689B7892C93A089B189A3
:1007F0008C91837080648C93938D848D981306C044
:100800000288F389E02D80818F7D80830895EF92A7
:10081000FF920F931F93CF93DF93EC0181E0888FBA
:100820009B8D8C8D98131AC0E889F989808185FF8A
:1008300015C09FB7F894EE89FF896083E889F9892C
:1008400080818370806480839FBF81E090E0DF912E
:10085000CF911F910F91FF90EF900895F62E0B8D81
:1008600010E00F5F1F4F0F731127E02E8C8D8E113C
:100870000CC00FB607FCFACFE889F989808185FFA3
:10088000F5CFCE010E94E503F1CFEB8DEC0FFD2FEC
:10089000F11DE35AFF4FF0829FB7F8940B8FEA895E
:1008A000FB8980818062CFCF682F89ED93E00C9423
:1008B0000704CF93DF93EC01888D8823B9F0AA89D0
:1008C000BB89E889F9898C9185FD03C0808186FD0B
:1008D0000DC00FB607FCF7CF8C9185FFF2CF80815A
:1008E00085FFEDCFCE010E94E503E9CFDF91CF91E7
:1008F00008952091C702260F3327331F2132310577
:10090000ECF420911003FC0190E080E0243069F0C9
:1009100082E00895A091C7022191AC0149555D4F35
:10092000A40FB52FB11D2C930196861798F38091D3
:10093000C702680F6093C70280E0089581E00895C0
:100940001092100381E080930F031092EA0261E09D
:1009500082E10E94D50161E083E10E94D501E9EBCB
:10096000F0E080818E7F808380818D7F808388E42A
:100970008093B80085E48093BC000895CF93DF9303
:1009800091E09093A6028823B9F0C091B800D0916D
:10099000BA008091BC008A7B8093BC0060E082E159
:1009A0000E94D50160E083E10E94D5010E94A0046D
:1009B000D093BA00C093B800DF91CF910895E09131
:1009C0003F0380913E03E81730F4F0E0EA57FD4F13
:1009D000808190E008958FEF9FEF089590913F03FD
:1009E00080913E032FEF3FEF981748F4E92FF0E096
:1009F000EA57FD4F208130E09F5F90933F03C9018C
:100A0000089580913E0390913F03891B990B0895AF
:100A1000CF92DF92EF92FF920F931F93CF93DF93CA
:100A20007C01CB018A0120911603222389F0EB017E
:100A30006B01C40ED51ECC15DD0569F06991D70197
:100A4000ED91FC910190F081E02DC7010995F3CF64
:100A5000642F0E947904C801DF91CF911F910F91FB
:100A6000FF90EF90DF90CF900895CF93DF931F9288
:100A7000CDB7DEB76983209116032223F9F02091C8
:100A80003C03203258F021E030E0FC013383228324
:100A900090E080E00F90DF91CF91089580913D0329
:100AA000E82FF0E0E95EFC4F998190838F5F80939F
:100AB0003D0380933C0381E090E0ECCF61E0CE0108
:100AC00001960E947904F7CFCF92DF92EF92FF92C6
:100AD0000F931F93CF93DF93FC01C48121E02093F8
:100AE0001603C093370310923D0310923C03838595
:100AF000682B86E794E00E943505D0913C03D13203
:100B000008F092C00E94B1026B017C018091100339
:100B1000811165C082E08093100381E080930F0310
:100B20008FEF80930E0310920D03D0930C03A7E177
:100B3000B3E0ECEEF2E080E0D81385C01092EB0257
:100B40008091EB02CC0FC82BC093EB028091EA029C
:100B5000813009F07CC01092EA020E94B1026B0160
:100B60007C018091EB028093BB00809112039091F5
:100B70001303A0911403B0911503892B8A2B8B2B9F
:100B800099F00E94B1020091120310911303209179
:100B90001403309115036C197D098E099F090617FE
:100BA000170728073907E0F18091BC0083FDD9CFF2
:100BB00085EC8093BC000E94B1026B017C018091A6
:100BC0001003823009F445C080910E038F3F61F11C
:100BD00080910E03803241F180910E0325C08091F7
:100BE000120390911303A0911403B0911503892B64
:100BF0008A2B8B2B09F48ACF0E94B1020091120339
:100C00001091130320911403309115036C197D0981
:100C10008E099F09061717072807390708F076CFAE
:100C2000809111030E94BE0410923D0310923C0378
:100C300010921603DF91CF911F910F91FF90EF90CB
:100C4000DF90CF9008959D9191938F5F75CF85EE42
:100C5000B0CF8091120390911303A0911403B0912F
:100C60001503892B8A2B8B2B09F4A9CF0E94B10283
:100C70000091120310911303209114033091150376
:100C80006C197D098E099F09061717072807390770
:100C900008F095CFC5CFFC0120812EBD9B012150CE
:100CA000310941F051810DB407FEFDCF4EB55EBD57
:100CB0004193F5CF61507109860F971F0DB407FE60
:100CC000FDCF2EB5FC0120830895E0914103F09102
:100CD0004203808190914003892B80830895E091A5
:100CE0004103F091420390818091400380958923D4
:100CF000808308958EBD00000DB407FEFDCF8EB534
:100D00000895AF92BF92CF92DF92EF92FF920F932E
:100D10001F93CF93DF93CDB7DEB728970FB6F89424
:100D2000DEBF0FBECDBF8C017B016A018091D8036D
:100D30008333E1F45801A40EB51EA016B10609F4E0
:100D40006FC00E946F0680EF0E947A06812F0E947A
:100D50007A06802F0E947A060F5F1F4FF70181915C
:100D60007F010E947A060E946506E7CF5B01A40E10
:100D7000B51E8433C1F40E946F0619830A838D2D3A
:100D800080688B83CC8264E070E0CE0101960E9483
:100D90004B06AE14BF0409F441C0F70181917F01F5
:100DA0000E947A06F6CF0E946F060F3F110509F0E8
:100DB00028F419820A8384E08B830CC017FD17C0C6
:100DC00019820A8333E0169507953A95E1F7007E7C
:100DD0000C600B8386E0C816D104A0F5F701DE0194
:100DE0001496EA15FB0599F081918D93FACFC8010D
:100DF00026E0969587952A95E1F7807E19830A83E8
:100E00000115104C10F48461D7CF8C61D5CFB60199
:100E10006D5F7F4FCE0101960E944B060E946506D2
:100E2000C60128960FB6F894DEBF0FBECDBFDF9186
:100E3000CF911F910F91FF90EF90DF90CF90BF90D7
:100E4000AF90089563E070E0CE0101960E944B06DA
:100E5000F70181917F010E947A06AE14BF04C1F7A9
:100E6000DDCFCF93DF931F92CDB7DEB7898341E00B
:100E700050E0BE016F5F7F4F90E080E00E948106EE
:100E80000F90DF91CF91089590E02091D803233304
:100E900039F40C96982F990F990F990F80E00895C7
:100EA0004896F8CFDA01E0914403F0E0FE2FEE27F8
:100EB000E60FF71F90E0982F8827A901BD018E0F3C
:100EC0009F1F0C948106CF93DF9300D0CDB7DEB780
:100ED00079836A8322E030E0AE014F5F5F4F60E1CB
:100EE00070E00E9452070F900F90DF91CF9108950C
:100EF000CF93DF9300D0CDB7DEB779836A8322E04A
:100F000030E0AE014F5F5F4F64E070E00E94520737
:100F10000F900F90DF91CF910895CF93DF931F92A1
:100F2000CDB7DEB72091440330E0322F2227260FC1
:100F3000371F90E0982F8827498341E050E0BE0199
:100F40006F5F7F4F820F931F0E9481060F90DF918A
:100F5000CF910895CF93DF931F92CDB7DEB769830A
:100F6000DC01ED91FC910280F381E02D41E050E045
:100F7000BE016F5F7F4F09950F90DF91CF9108956C
:100F80000895FC019485FB018485981303C081E0DA
:100F9000943008F080E00895CF93DF931F92CDB78F
:100FA000DEB76983DC01ED91FC910280F381E02DD5
:100FB00041E050E0BE016F5F7F4F09950F90DF91D8
:100FC000CF9108950895FF920F931F93CF93DF93CE
:100FD000EB01FC01178A168A2A81211109C02B8195
:100FE000211106C02C81211103C02D81222301F182
:100FF00041155105E9F08A01FC01F08C80E591E092
:101000000E949301AE014E5F5F4F24E030E06CE040
:1010100070E08F2D0E945207B8018F2D0E94630748
:1010200081E090E0DF91CF911F910F91FF900895A3
:1010300080E0F7CFFC01848595850895FC018489C3
:10104000958908952AEA31E0FC0131832083FB0170
:101050004089518962897389FC0142835383648387
:1010600075830895DC01ED91FC91048CF58DE02DE4
:10107000099490E080E0089590E080E00E9454049C
:1010800090E080E00C94540490E080E00E945404CE
:1010900081E090E00C945404EF92FF920F931F9321
:1010A000CF93DF9300D000D000D0CDB7DEB7DC0106
:1010B000AB0118966D917C9119978D919C91119728
:1010C000FC012081318161157105B9F0D90150967B
:1010D000ED91FC91099521E0019709F020E0822F24
:1010E00026960FB6F894DEBF0FBECDBFDF91CF912D
:1010F0001F910F91FF90EF900895F901E684F78416
:101100002AEA31E03A83298314960D911D912D919D
:101110003C9117970B831C832D833E83BE016F5F29
:101120007F4FF701D7CFFC019485992369F0808127
:101130009181DC01ED91FC910688F789E02D0995FC
:1011400091E0811101C090E0892F0895DC011C9687
:101150001C921C978D919C91009739F0DC01ED91C8
:10116000FC910488F589E02D09940895FC017687A7
:1011700065870895DC01ED91FC9102A0F3A1E02DBB
:10118000099591E089270895862F089581E08627A3
:10119000089521E0FC018485843008F020E0822F4E
:1011A000089508958F929F92AF92BF92EF92FF920F
:1011B0000F931F93CF93DF93CDB7DEB7A1970FB6F1
:1011C000F894DEBF0FBECDBF7C01FA01CB0119A29E
:1011D000223008F42AE08E010F5D1F4F822E912CE1
:1011E000B12CA12CBF01A50194010E945032F9013C
:1011F000CA016A3074F5605DD8016E938D01232BAE
:10120000242B252B79F790E080E0109789F0FD01E1
:1012100001900020E9F73197AF014A1B5B0BD70122
:10122000ED91FC910280F381E02DB801C701099591
:10123000A1960FB6F894DEBF0FBECDBFDF91CF9160
:101240001F910F91FF90EF90BF90AF909F908F9064
:101250000895695CD1CFFC0101900020E9F7319736
:10126000AF01481B590BBC0188EB94E00C94670359
:101270000C94C42C8F929F92AF92BF92CF92DF9228
:10128000EF92FF920F931F93CF93DF937C01EB01BB
:101290006C0182E0C80ED11C4701E5E08E0E911C66
:1012A00010E000E0F60141916F0150E070E060E075
:1012B0002AE0CE010E94D2085C01E881F981019008
:1012C000F081E02D6EE2CE0109958A0D9B1D080F7D
:1012D000191FC814D90431F7F701458150E070E0B7
:1012E00060E02AE0CE010E94D208800F911FDF91BA
:1012F000CF911F910F91FF90EF90DF90CF90BF9013
:10130000AF909F908F9008950F931F93CF938C0170
:10131000C62F0E9464056C2F6460C8010E9464059A
:101320006C2F6B7FC8010E94640583EC90E00197ED
:10133000F1F7CF911F910F9108950F931F93CF93C2
:10134000DF938C01D62FC42F607F642B0E94840909
:1013500080E1D89FB00111246C2BC801DF91CF919F
:101360001F910F910C948409CF93DF93CDB7DEB713
:1013700028970FB6F894DEBF0FBECDBF98E0ECE023
:10138000F1E0DE01119601900D929A95E1F79091AE
:10139000C004961708F46FEF262F30E0220F331F9A
:1013A00041E050E04C0F5D1F240F351FF9016081B3
:1013B000680F606840E088EB94E028960FB6F894D8
:1013C000DEBF0FBECDBFDF91CF910C949D09FB0115
:1013D000808191810E94F12D892B81F081E090E044
:1013E0000E94540481E090E00E94540461E088E08F
:1013F0000E94B4098CEA91E00C942B0981E090E002
:101400000E94540490E080E00E94540461E088E06F
:101410000E94B40987EB91E0EFCFFB0180819181BD
:101420000E94F12D21E0009709F420E02093B00301
:10143000892B51F00E94440861E088E00E94B409C1
:1014400082EC91E00C942B090E943C0861E088E05A
:101450000E94B4098CEC91E0F5CF40E061E088EBAC
:1014600094E00E949D098BE39FE10197F1F70895B5
:1014700041E00E949D0981E090E00895FB01808198
:1014800091810E94F12D21E0009709F420E0209342
:10149000AF03892B61F061E085E00E94D50160E037
:1014A00088E00E94B40986ED91E00C942B0960E07D
:1014B00085E00E94D50160E088E00E94B4098EEDCD
:1014C00091E0F3CFFB01808191810E94F12D892B66
:1014D00061F061E084E00E94D50160E088E00E9454
:1014E000B40986EE91E00C942B0960E084E00E9440
:1014F000D50160E088E00E94B4098EEE91E0F3CF60
:10150000AF92BF92CF92DF92EF92FF920F931F9311
:10151000CF93DF9300D000D0CDB7DEB78C016B0145
:101520007A018091D8038333E9F45B016801C40E2A
:10153000D51EC016D106A9F10E946F068FE00E9449
:101540007A06812F0E947A06802F0E947A060F5F0A
:101550001F4F80E00E947A06F50181935F010E948F
:101560006506E7CF843369F50E946F0619830A8305
:101570008F2D8F778B83EC8264E070E0CE01019633
:101580000E944B06A70170E060E0C6010E94E133B3
:10159000E114F10421F0B701C6010E944B060E943C
:1015A0006506C7010F900F900F900F90DF91CF91BC
:1015B0001F910F91FF90EF90DF90CF90BF90AF9071
:1015C00008950E946F060F3F110509F030F419824B
:1015D0000A831B8263E070E0D1CF17FD0BC0198234
:1015E0000A8333E0169507953A95E1F7007E086087
:1015F0000B83F0CFC80126E0969587952A95E1F7F1
:10160000807E19830A830115104C18F480618B8346
:10161000E1CF8861FCCFCF93DF931F92CDB7DEB7C8
:101620002091440330E0322F2227260F371F90E00D
:10163000982F882741E050E0BE016F5F7F4F820FF7
:10164000931F0E94800A89810F90DF91CF910895A6
:10165000CF93C82F462F61E070E00E948D0761E0B4
:1016600070E08C2F0E940B0B8111F9CFCF91089560
:10167000CF93C82F80E591E00E94930168E070E06D
:101680008C2FCF910C94280BCF93C82F80E591E03D
:101690000E94930160E170E08C2FCF910C94280B95
:1016A000CF93DF93EC01888D843020F40E94440BAB
:1016B00084E0888FDF91CF910895CF93C82F80E584
:1016C00091E00E94930163E070E08C2FCF910C9425
:1016D0000B0BCF93DF93EC018C858430D0F40E9408
:1016E0005D0B843189F0882379F0883169F021E03D
:1016F0008C3159F4E881F9810084F185E02DCE0127
:10170000099521E0892B09F420E0822FDF91CF9108
:10171000089580E0FBCFCF92DF92EF92FF92CF93BC
:10172000DF93EC018C85843068F40E94380B0E94B2
:1017300009036B017C018C850E945D0B811109C03E
:1017400084E08C87DF91CF91FF90EF90DF90CF9076
:10175000089561E070E080E090E00E94D6020E946F
:101760000903AB01BC014C195D096E097F098D8528
:101770009E85B0E0A0E0481759076A077B07D8F2BA
:101780008C850E94440BDCCFCF93FC01C08D80E59B
:1017900091E00E94930160E270E08C2F0E94280B80
:1017A00062E070E08C2F0E940B0B84FD16C062E09B
:1017B00070E08C2F0E940B0B83FF0AC048E162E0AF
:1017C00070E08C2F0E948D0780E090E0CF9108950B
:1017D00080E591E00E949301E3CF40E162E070E098
:1017E0008C2F0E948D0781E0F0CFCF93DF931F9263
:1017F000CDB7DEB741E050E0BE016F5F7F4F90E0B4
:1018000080E00E94800A89810F90DF91CF91089536
:10181000CF93DF93C4E1D0E00E94F50B882361F001
:1018200061E070E080E090E00E94D6022197A1F78D
:1018300080E0DF91CF91089581E0FBCF1F93CF939C
:10184000DF931F92CDB7DEB7182F80E591E00E949D
:101850009301812F0E94440727E0129FF001112479
:10186000E454FC4F22813381377041E050E0BE01E7
:101870006F5F7F4F820F931F0E94800A89810F90B4
:10188000DF91CF911F910895FC01808D843040F449
:10189000218D328D232B21F00E941E0C90E00895A3
:1018A0008FEF9FEF0895CF93DF93FC0124852430C1
:1018B00028F08FEF9FEFDF91CF910895EC01019019
:1018C000F081E02D0084F185E02D0995892B89F3C5
:1018D0008C850E941E0C90E0EECFDA01E09144036B
:1018E000F0E0FE2FEE27E60FF71F90E0982F8827F5
:1018F000A901BD018E0F9F1F0C94800A8F929F92A9
:10190000AF92BF92CF92DF92EF92FF921F93CF934D
:10191000DF93CDB7DEB72C970FB6F894DEBF0FBEBE
:10192000CDBF2091D80314E0222339F16B017C0153
:1019300080E591E00E9493015E0127E0A20EB11CB8
:10194000450110E063E070E0812F0E940B0BF40171
:1019500081934F01882349F11F5F143099F710E0FC
:10196000F50181915F018D31D9F08831C9F08A513B
:101970008230B0F01F5F143099F7812F2C960FB68C
:10198000F894DEBF0FBECDBFDF91CF911F91FF90C6
:10199000EF90DF90CF90BF90AF909F908F90089581
:1019A00060E170E0812F0E94280BA12EB12C83EE04
:1019B00093E00197F1F742E870E060E0812F0E9428
:1019C0008D074FEF62E070E0812F0E948D07B60116
:1019D000C114D10491F4809100019091010101960C
:1019E0008115F0EC9F0708F45CC09093010180938F
:1019F00000016091000170910101812F0E94780720
:101A000086E0E4E1F1E0DE01119601900D928A9505
:101A1000E1F7F70183818F778C8384818D838581C2
:101A20008E83A7014E5F5F4F24E030E06CE070E0F2
:101A3000812F0E945207B601812F0E94630726E082
:101A400030E0AE014F5F5F4F66E070E0812F0E9493
:101A5000520761E070E0812F0E94280B27E02A9D49
:101A6000C0012B9D900D11249C0124543C4F790101
:101A7000F9011182108222E030E0AE01455F5F4F34
:101A800068E270E0812F0E946D0C8B859C85982701
:101A900089279827F70193838283168215821482FF
:101AA0006CCF80E090ECA1CFCF92DF92EF92FF92CB
:101AB0000F931F93CF93DF9300D000D000D0CDB70A
:101AC000DEB78C016B017A01FC01808D843010F44B
:101AD0000E94440B8AEA91E09A838983F60182810D
:101AE0009381A481B5818B839C83AD83BE83B70131
:101AF000CE0101960E947E0CF801808F8430A0F404
:101B0000F586E486128E118E81E026960FB6F89443
:101B1000DEBF0FBECDBFDF91CF911F910F91FF9020
:101B2000EF90DF90CF90089580E0EFCFAF92BF921B
:101B3000CF92DF92EF92FF920F931F93CF93DF9399
:101B400000D000D000D0CDB7DEB7082F6B0180E504
:101B500091E00E9493019E012F5F3F4F790159014F
:101B600010E063E070E0812F0E940B0BF501819380
:101B70005F01882341F11F5F143099F710E0F701EE
:101B800081917F018D31D1F08831C1F08A5182304D
:101B9000A8F01F5F143099F7812F26960FB6F8949E
:101BA000DEBF0FBECDBFDF91CF911F910F91FF9090
:101BB000EF90DF90CF90BF90AF90089560E170E01C
:101BC000812F0E94280BE12EF12C83EE93E00197E8
:101BD000F1F7402F70E060E0812F0E948D074FEFFA
:101BE00062E070E0812F0E948D07B601CD2889F454
:101BF000809100019091010101968115F0EC9F0701
:101C000098F190930101809300016091000170911F
:101C10000101812F0E94780761E070E0812F0E940E
:101C2000280B27E02E9DC0012F9D900D11249C01B3
:101C300024543C4F7901F9011182108222E030E0F6
:101C4000AE014B5F5F4F68E270E0812F0E946D0C28
:101C50008D819E81982789279827F7019383828316
:101C600016821582148298CF80E090ECCACFCF9272
:101C7000DF92EF92FF921F93CF93DF93EC017B01F2
:101C80006A018C85843048F40E945D0B882319F02A
:101C90008C850E94380B84E08C87F70182819381C8
:101CA000A481B5810097A105B10551F490E080E0D1
:101CB000DF91CF911F91FF90EF90DF90CF9008952B
:101CC0008F3F9F4FAF4FBF4F89F38091D803811152
:101CD00003C084E08C87EACF70E060E081E20E947C
:101CE000960D182F8C87843008F780E591E00E94CC
:101CF0009301A7014E5F5F4F24E030E06CE070E09D
:101D0000812F0E945207B601812F0E94630764E071
:101D100070E0812F0E94280B0E9409036B017C0157
:101D20008C850E945D0B873109F18C31F9F0882395
:101D300009F4BCCF0E940903AB01BC014C195D0939
:101D40006E097F098D859E85B0E0A0E08417950718
:101D5000A607B70738F061E070E080E090E00E94ED
:101D6000D602DECF8C850E94440BB3CF81E090E099
:101D70009FCF0F931F93CF93DF93EC018B01888D3F
:101D8000843010F40E94440B8091D803811107C065
:101D900094E0988FDF91CF911F910F910895B80132
:101DA00082E00E94960D888F843030F41D870C8766
:101DB0001A8E198E81E0EECF80E0ECCF7F928F9269
:101DC0009F92AF92BF92CF92DF92EF92FF920F93CA
:101DD0001F93CF93DF9300D0CDB7DEB7782E8B0162
:101DE0004A01590122E030E0AE014F5F5F4F64E2EB
:101DF00070E00E946D0CE980FA80FE24EF24FE243E
:101E0000E00EF11E970137704091D803072D10E0C6
:101E1000433309F042C0085F1F4F102F0027110FF6
:101E2000110F110FC901800F911F4733C9F1A9018B
:101E30004A0D5B1D4130584098F160E078E06B013D
:101E4000C21AD30AA601B4010E948106A5014C1949
:101E50005D09B4016C0D7D1DC8010E948106EA0C6C
:101E6000FB1CF982EA8222E030E0AE014F5F5F4F57
:101E700064E270E0872D0E9452070F900F90DF916F
:101E8000CF911F910F91FF90EF90DF90CF90BF9077
:101E9000AF909F908F907F900895005F1F4FBDCFB0
:101EA000A501B401DACFEF92FF921F93CF93DF9396
:101EB00000D0CDB7DEB7182F22E030E0AE014F5F83
:101EC0005F4F60E270E00E946D0CE980FA80FE24B2
:101ED000EF24FE2422E030E0AE014F5F5F4F60E26E
:101EE00070E0812F0E946D0C89819A819827892743
:101EF0009827E816F90689F487E0189FF001112465
:101F0000E454FC4FF582E482C7010F900F90DF91FB
:101F1000CF911F91FF90EF9008957C01DBCF1F932D
:101F2000CF93DF93182F80E591E00E949301812FDA
:101F30000E94530FEC0163E070E0812F0E940B0BB5
:101F4000873121F08C3111F0D0E0C0E0CE01DF917B
:101F5000CF911F910895CF93DF93EC018C8584304E
:101F600060F40E945D0B873111F08C3131F48C8567
:101F70000E948F0F8115984088F3DF91CF910895CB
:101F8000FC018485843010F40C948F0F90E080E085
:101F900008959F92AF92BF92CF92DF92EF92FF92FD
:101FA0000F931F93CF93DF938C015B01942EE52E4B
:101FB000FC01C688D788F08C80E591E00E949301EF
:101FC0008F2D0E94530FC92DDE2D8C179D0708F40D
:101FD000EC019E01A501B6018F2D0E94DE0EF801D5
:101FE000868997898C0F9D1F978B868BCE01DF91F9
:101FF000CF911F910F91FF90EF90DF90CF90BF9006
:10200000AF909F9008958F929F92AF92BF92CF9280
:10201000DF92EF92FF920F931F93CF936C015B01BE
:102020008A01FC01C485C430F0F57A014130584082
:1020300018F0E12C88E0F82E80E591E00E949301F1
:102040008C2F0E94530F4C0163E070E08C2F0E9494
:102050000B0B873111F08C3149F58E149F0460F31E
:1020600080E591E00E9493019701A50170E060E096
:102070008C2F0E94DE0E60E270E08C2F0E94280BF5
:1020800062E070E08C2F0E940B0B84FD17C063E0B0
:1020900070E08C2F0E940B0B81110BC081E090E04F
:1020A000F6019383828310E000E010C0F12CE12C54
:1020B000D7CF80E591E00E949301E2CF40E162E05A
:1020C00070E08C2F0E948D07EF2841F3C801CF915B
:1020D0001F910F91FF90EF90DF90CF90BF90AF9046
:1020E0009F908F900895FF920F931F93CF93DF934C
:1020F00000D0CDB7DEB7F82E22E030E0AE014F5F62
:102100005F4F66E270E00E946D0C09811A81102712
:102110000127102722E030E0AE014F5F5F4F66E2FB
:1021200070E08F2D0E946D0C89819A8198278927F4
:1021300098270817190749F4C8010F900F90DF91ED
:10214000CF911F910F91FF9008958C01E3CF1F93C2
:10215000CF93DF93182F87E0189FE0011124C45418
:10216000DC4F88819981009761F480E591E00E94BD
:102170009301812F0E9473102E81821B91099983F4
:102180008883DF91CF911F910895FC01848584306D
:1021900010F40C94A71090E080E008954F925F92A5
:1021A0007F928F929F92AF92BF92CF92DF92EF92E7
:1021B000FF920F931F93CF93DF9300D0CDB7DEB77D
:1021C000782E6B014A01A82EB12C27E0829FC00116
:1021D0001124FC01E454FC4F7F010081118180E552
:1021E00091E00E9493010815190554F4872D0E946F
:1021F0007310F70126818C01021B110911830083E2
:102200000115110529F563E070E0872D0E940B0B85
:10221000843159F0882349F001E010E08C3111F449
:1022200010E000E0119501951109C8010F900F9081
:10223000DF91CF911F910F91FF90EF90DF90CF90A2
:10224000BF90AF909F908F907F905F904F90089538
:10225000801691060CF4840187E08A9DF0018B9D25
:10226000F00D1124E454FC4FE280F380C114D1043A
:1022700051F12701F7E05F22872D0E944407840D6A
:10228000951D2091D803273309F453C09801240DDC
:10229000351D2130384008F44CC020E038E04901B9
:1022A00084189508A401B6010E94800A2601480CF2
:1022B000591C6801C818D908872D0E944407A60137
:1022C000B2010E94800AE00EF11E87E08A9DF001B3
:1022D0008B9DF00D1124E454FC4FF382E2822081A7
:1022E0003181201B310B318320838681800F912F18
:1022F000911D8A3F910510F4232BF1F487E08A9D0C
:10230000F0018B9DF00D1124E454FC4F1682F982EC
:10231000EA8222E030E0AE014F5F5F4F68E270E09A
:10232000872D0E94520760E470E0872D0E94280BE1
:102330007CCFA801B601C5CF868377CFCF93DF933B
:10234000FC01218D328D2115310529F48FEF9FEF8E
:10235000DF91CF910895EC01808D4217530708F06B
:10236000A9010E94CE101816190684F7298D3A8DFE
:10237000281B390B3A8F298FEBCF0F931F93CF93E5
:10238000DF931F92CDB7DEB7FC01218D328D232B59
:1023900041F48FEF9FEF0F90DF91CF911F910F913D
:1023A00008958C0141E050E0BE016F5F7F4FFC015A
:1023B000808D0E94CE10181619065CF7F801818DE9
:1023C000928D0197928F818F898190E0E4CFCF9396
:1023D000DF931F92CDB7DEB741E050E0BE016F5FE3
:1023E0007F4FFC0184850E94CE101816190634F424
:1023F000898190E00F90DF91CF9108958FEF9FEF4B
:10240000F9CFFC018485843010F40C94CE1090E058
:1024100080E008950F931F93CF93DF9300D0CDB743
:10242000DEB7FC0124852430E0F48C0180E591E0E6
:102430000E94930122E030E0AE014F5F5F4F60E108
:1024400070E0F80184850E946D0C89819A8198273B
:10245000892798270F900F90DF91CF911F910F91AF
:10246000089590E080E0F6CF0F931F93CF93DF9312
:1024700000D0CDB7DEB7FC0124852430E0F48C0118
:1024800080E591E00E94930122E030E0AE014F5FD1
:102490005F4F64E070E0F80184850E946D0C8981D3
:1024A0009A819827892798270F900F90DF91CF91D5
:1024B0001F910F91089590E080E0F6CFDC018AEA49
:1024C00091E08D939D9384E0FB0101900D928A959C
:1024D000E1F70895EF92FF920F931F93CF93DF934D
:1024E00000D000D0CDB7DEB78C017B01FB01848525
:1024F0008430A8F08AEA91E0F80191838083128207
:10250000138214821582C8010F900F900F900F90C4
:10251000DF91CF911F910F91FF90EF90089580E58B
:1025200091E00E94930124E030E0AE014F5F5F4FE5
:102530006CE070E0F70184850E946D0CBE016F5F56
:102540007F4FC8010E945E12DECF0F931F93CF937F
:10255000DF93CDB7DEB728970FB6F894DEBF0FBE76
:10256000CDBF8C01D80159964D915C915A97411578
:10257000510551F0ED91FC91048CF58DE02D70E04A
:1025800060E0C8010995EECFF801808D0E94A71088
:10259000892BB1F148E050E0BE016F5F7F4FD80159
:1025A00058968C910E94CE1018161906F4F4D80192
:1025B000509684E0FE01319601900D928A95E1F7E4
:1025C0008D8190E0982F88272E81820F911DF80130
:1025D000958B848B8F81282F30E0322F222788859E
:1025E000820F932F911D928F818F28960FB6F894AA
:1025F000DEBF0FBECDBFDF91CF911F910F91089528
:1026000090E080E0F2CF4F925F926F927F928F9234
:102610009F92AF92BF92CF92DF92EF92FF920F9371
:102620001F93CF93DF93CDB7DEB763970FB6F894C0
:10263000DEBF0FBECDBF7C016B013A01FB0120E084
:1026400090E080E06AE03191332309F461C040ED0D
:10265000430F4A3008F04DC0689FA001699F500D9C
:102660001124CA01C097830F911D37FD9A958F3FA2
:10267000910549F340F3F7014281538164817581EB
:102680008091AE049091AF04A091B004B091B104D8
:10269000481759076A077B0709F40DC28701085FCD
:1026A0001F4F0E9409036F7077277C5FC8010E944B
:1026B000B90E813009F004C28AEA91E09A838983D5
:1026C000F70182819381A481B5818B839C83AD8343
:1026D000BE8345E350E0BE016F5F7F4FC8010E949B
:1026E000E307892BA9F5D12CC12CC8010E94500BFE
:1026F00017C03E3209F0BFCF233009F4BCCFD3015D
:10270000A20FB11D12968C932F5F90E080E09BCFBB
:10271000233009F0B0CFF3018583CC24C394D12CAE
:10272000C60163960FB6F894DEBF0FBECDBFDF9132
:10273000CF911F910F91FF90EF90DF90CF90BF90BE
:10274000AF909F908F907F906F905F904F90089583
:102750000E940903F7017783668342E050E0B701E6
:102760006A5F7F4FC8010E94C90F81E090E09A83A1
:10277000898342E050E0BE016F5F7F4FC8010E9435
:10278000C90F80E091E09A83898342E050E0BE0166
:102790006F5F7F4FC8010E94C90F1A82198242E001
:1027A00050E0BE016F5F7F4FC8010E94C90F42E039
:1027B00050E0BE016F5F7F4FC8010E94C90F42E029
:1027C00050E0BE016F5F7F4FC8010E94C90F5601E4
:1027D000F6018081882301F16501F60181912F01C5
:1027E000882311F08E32B1F446018A189B08181420
:1027F000190474F48D8641E050E0BE01635F7F4FA1
:10280000C8010E94C90FA401B501C8010E94C90FE7
:102810005201DECF6201E1CF1D8641E050E0BE01F2
:10282000635F7F4FC8010E94C90FC12CDD24D39480
:10283000DA82C98242E050E0BE016F5F7F4FC8017B
:102840000E94C90FDA82C98242E050E0BE016F5F88
:102850007F4FC8010E94C90FC8010E94C40B892B79
:1028600009F441CFF3E0AF2EB12C230122E0420E58
:10287000511CD4C0F7014281538164817581808DE0
:10288000918DA28DB38D481759076A077B0709F010
:1028900008C1848D958DC59709F003C181A192A1CE
:1028A0005DEFC52EDD24DA940C970CF4ADC04CE03E
:1028B00050E0BE016F5F7F4FC8010E949E118B8167
:1028C0009C819827892798279A8B898BF7014681C5
:1028D000578129813A814217530709F0E7C097FFD2
:1028E000E5C08F7092703BEFC32EDD24DA94892B04
:1028F00009F08AC06F8078847624672476242AEFD2
:10290000C22EDD24DA946114710409F47DC0D12C47
:10291000C12C8D819E81982789279827C816D906B2
:10292000F8F441E050E0BE01635F7F4FC8010E94B0
:102930009E114D85442331F050E070E060E0C80105
:102940000E949E118D858111ECCF44E050E070E033
:1029500060E0C8010E949E11FFEFCF1ADF0AD9CFB5
:10296000912C812C41E050E0BE016D5E7F4FC8018B
:102970000E949E114B89842F807C09F06CC04423F7
:1029800031F050E070E060E0C8010E949E118B8938
:102990008111E8CF42E050E0BE01615F7F4FC80186
:1029A0000E949E1142E050E0BE01635F7F4FC8016C
:1029B0000E949E1144E050E070E060E0C8010E9477
:1029C0009E1142E050E0BE016F5E7F4FC8010E9441
:1029D0009E118F85988949895A898115914009F0FE
:1029E00043C0CD84DE84DC24CD24DC2481E0C81601
:1029F000D104D1F54115544009F04AC044E050E0FB
:102A0000B201C8010E949E1121E0A21AB10809F486
:102A10006CCEFFEFCF16DF0609F067CE0E940903E8
:102A20003B014C01C8010E94A512181619060CF4AE
:102A300021CF0E9409036619770988099909693825
:102A400073418105910548F562E370E080E090E014
:102A50000E94D602E7CF41E050E070E060E0C8019C
:102A60000E949E111B8A93CF54274527542770E05C
:102A700060E0C8010E949E11FFEF8F1A9F0A681440
:102A8000790409F06FCF96EFC92EDD24DA94BCCF1C
:102A9000E7EFCE2EDD24DA94B7CFCC24CA94DC2C19
:102AA000B3CF6EEFC62EDD24DA94AECF4CEFC42E3A
:102AB000DD24DA94A9CF8EEFC82EDD24DA9430CE4F
:102AC000D12CC12C2DCECF92DF92EF92FF920F939B
:102AD0001F93CF93DF93CDB7DEB7AF970FB6F894C0
:102AE000DEBF0FBECDBF7C016A010AEA11E01A8386
:102AF00009831C861B8688EE93E0A0E0B0E08D87FA
:102B00009E87AF87B88B8EE191E09A878987188F6F
:102B10000F8B198E1A8E1B8E1C8E84E089A31BA727
:102B20000AA71CA61DA61EA61FA68091A20490910E
:102B3000A304A091A404B091A5048EA39FA3A8A769
:102B4000B9A78B839C83AD83BE8318861F82AE0199
:102B5000465D5F4FCE0101960E94031381309105BF
:102B6000B1F4D701ED91FC910488F589E02D1DA306
:102B70000CA38CA59DA5AEA5BFA58EA39FA3A8A7BA
:102B8000B9A7A601BE016C5D7F4FC7010995AF963D
:102B90000FB6F894DEBF0FBECDBFDF91CF911F916E
:102BA0000F91FF90EF90DF90CF900895CF92DF923A
:102BB000EF92FF920F931F93CF93DF93CDB7DEB7C2
:102BC000AF970FB6F894DEBF0FBECDBF8C016B017F
:102BD0007A018AEA91E09A8389831B821C821D8292
:102BE0001E821C861B8648EE53E060E070E04D8735
:102BF0005E876F87788B2EE131E03A872987988F3F
:102C00008F8B198E1A8E1B8E1C8E24E029A39BA7F6
:102C10008AA71CA61DA61EA61FA6D8011C968C91CD
:102C2000843060F40E945D0B882321F0F8018485D4
:102C30000E94380B84E0D8011C968C938091A204EA
:102C40009091A304A091A404B091A5048EA39FA386
:102C5000A8A7B9A78B839C83AD83BE8318861F82E8
:102C6000AE01465D5F4FB601CE0101960E9403138F
:102C70000097C1F0D801ED91FC910684F785E02D15
:102C80008AEA91E09DA38CA38CA59DA5AEA5BFA5C6
:102C90008EA39FA3A8A7B9A7A701BE016C5D7F4F14
:102CA000C8010995AF960FB6F894DEBF0FBECDBF31
:102CB000DF91CF911F910F91FF90EF90DF90CF9018
:102CC00008957F928F929F92AF92BF92CF92DF92A0
:102CD000EF92FF920F931F93CF93DF93CDB7DEB7A1
:102CE000A6970FB6F894DEBF0FBECDBF8C01762E2F
:102CF000942E852E20E2A22ECE0101967C01DC01CD
:102D0000EA2D1D92EA95E9F76801F3E4CF0ED11C94
:102D10008AEA91E09AA389A38FEF8BA38CA38DA35A
:102D20008EA343E450E0BE016F5D7F4FC6010E9459
:102D3000E307019609F4BFC081E089838A8386E0B6
:102D4000B82EBB821C82D80114966D917D918D9115
:102D50009C9117970E9496326D837E838F8398870C
:102D600089869A8680E890E09C878B874CE150E0CA
:102D7000B701C6010E94C90FFE0137968AE1DF0143
:102D80001D928A95E9F74801B8E08B0E911CF40179
:102D9000D70101900D92BA94E1F740E150E0B701FC
:102DA000C6010E94C90FF7011192AA94E9F796E0B3
:102DB000A92EB12C40E250E0B701C6010E94C90F14
:102DC000F1E0AF1AB108B1F783E6898392E89A83FC
:102DD00093E59B838C8385E38D8381E08E837F8263
:102DE0009DE3988797E099878A8786E0F401DE0162
:102DF0001B9601900D928A95E1F78CE0898B8A8B66
:102E000066EF71E0CE0143960E94F133D8011B9624
:102E10006C91CE0149960E949601F8016485CE011D
:102E20004B960E949601D8011D966C91CE014D964D
:102E30000E9496014EE150E0B701C6010E94C90F01
:102E4000B3E07B121EC082E3898384E08A83F801A9
:102E500096859B8397859C8390899D8391899E838A
:102E600096E39F838887828D8987838D8A87848D67
:102E70008B87858D8C874CE050E0B701C6010E949E
:102E8000C90F87E3898386E08A8391E09B8393E07F
:102E90009C838D838FE08E838AE38F838BE3888787
:102EA0008FEF898749E050E0B701C6010E94C90F42
:102EB000C6010E94C40BA6960FB6F894DEBF0FBEE3
:102EC000CDBFDF91CF911F910F91FF90EF90DF90D9
:102ED000CF90BF90AF909F908F907F9008950F9369
:102EE0001F93CF93DF93EC01FB0101900020E9F7E2
:102EF0008F01061B170B8A819B81A801480F591F60
:102F00002C813D812417350768F028813981A8017B
:102F1000820F931F0E94D8334A815B81400F511F5B
:102F20005B834A83DF91CF911F910F91089585EDC7
:102F30008093BC008091120390911303A09114031D
:102F4000B09115030796A11DB11D23E0B695A79575
:102F5000979587952A95D1F72091BC0024FD03C051
:102F60001092100308954091120350911303609141
:102F7000140370911503452B462B472B69F30097DB
:102F8000A105B10541F02AE22A95F1F700C00197A9
:102F9000A109B109E1CF809111030C94BE043F92C5
:102FA0004F925F926F927F928F929F92AF92BF9259
:102FB000CF92DF92EF92FF920F931F93CF93DF9305
:102FC000CDB7DEB7EA970FB6F894DEBF0FBECDBF20
:102FD0007C012A013B0169010E9409034B015C014C
:102FE00087010D5B1F4FC8010E94A5121816190614
:102FF0009CF00E940903681979098A099B09461601
:1030000057066806790608F466C162E370E080E05E
:1030100090E00E94D602E7CF42E250E0BE016F5F2F
:103020007F4FC8010E949E1189818230D1F0312CDE
:10303000832DEA960FB6F894DEBF0FBECDBFDF91A9
:10304000CF911F910F91FF90EF90DF90CF90BF90A5
:10305000AF909F908F907F906F905F904F903F9038
:103060000895F801848995898334910501F76D816C
:103070007E818F8198850E9496324B015C01F6011A
:1030800080829182A282B38246E050E0B701685FFD
:103090007F4FCE014D960E94CB33892B41F6F7012D
:1030A00080819181A281B38188169906AA06BB0608
:1030B00008F4BDCF84819581A681B78188159905D3
:1030C000AA05BB0508F4B3CF89899A89AB89BC8965
:1030D00086879787A08BB18B4EEC50E070E060E064
:1030E000C8010E949E11312CC701829698AB8FA710
:1030F000F701B696FAABE9AB08969CAB8BAB6701D0
:103100009AE1C90ED11CBD96FEABEDABC70142964C
:1031100098AF8FABFD97FAAFE9AF4701FEE18F0E95
:10312000911CF801818D928D181619060CF080CF34
:10313000C8010E94BD118333910509F4B2C014F592
:103140008130910509F464C044F4892B51F3C8011E
:103150000E94BD11AC01552775C08330910509F45B
:1031600062C00697A1F7C8010E94BD11B82E44E0C5
:1031700050E0B401C8010E949E11EB2DE450FF0BFA
:10318000AF0160C08A33910509F45FC084F58533CF
:103190009105B1F1C697D9F6C8010E94BD115C0135
:1031A000B601CE0189960E945E128BA59CA5ADA5A5
:1031B000BEA5892B8A2B8B2BB1F0EDA9FEA94080EF
:1031C000518062807380B601CE0183960E945E12A8
:1031D0008DA19EA1AFA1B8A5A501481659066A0602
:1031E0007B0609F0B8CF44E050E0B60118C08B333D
:1031F000910509F440C08F3F910509F492CFA7CF04
:10320000C8010E94BD11C8010E94BD11382E89CF8E
:10321000C8010E94BD1144E050E06FA978ADC8011B
:103220000E949E117ECFC8010E94BD11B82E44E0BD
:1032300050E069AD7AADC8010E949E118B2D84507B
:10324000990BAC0170E060E0EACFC8010E94BD11AB
:1032500044E050E069A97AA9C8010E949E11F701D3
:1032600066A177A180A591A50E94963266A377A357
:1032700080A791A756CFC8010E94BD1144E050E03D
:103280006BA97CA9C8010E949E11F70162A573A5D4
:1032900084A595A50E94963262A773A784A795A7D7
:1032A00040CFC8010E94BD1144E050E06FA578A94D
:1032B000C8010E949E11F70162A173A184A195A18A
:1032C0000E94963262A373A384A395A366A777A7EF
:1032D00080AB91AB26CF33243A94AACE0F931F93A1
:1032E000CF93DF93CDB7DEB728970FB6F894DEBF44
:1032F0000FBECDBF8C01CB014AE0BE016F5F7F4F97
:103300000E943F2EBE016F5F7F4FC8010E946F1762
:1033100028960FB6F894DEBF0FBECDBFDF91CF91D8
:103320001F910F9108953F924F925F926F927F92FB
:103330008F929F92AF92BF92CF92DF92EF92FF92C5
:103340000F931F93CF93DF93CDB7DEB7A1970FB63F
:10335000F894DEBF0FBECDBF5C010DB71EB719A339
:1033600008A360E070E0CB010E94D602D5019196DF
:103370008D919C919297912C029709F498C0909608
:103380008C9190978F5F90968C9390975E962D91ED
:103390003C91232B19F09924939482C08330D8F761
:1033A000F501828593850E949308882309F440C320
:1033B0008E010F5F1F4F3801D5011A96ED91FC91D8
:1033C00080819181DC01ED91FC910084F185E02DFB
:1033D0000995181619060CF02BC3D5011A96ED9114
:1033E000FC9145E050E0BE01695E7F4F8081918194
:1033F0000E941703009701F3059709F04AC0888DD2
:10340000998D982789279827998F888FEA8CFB8C2C
:10341000FE24EF24FE24FB8EEA8E892BD1F18F89C6
:1034200081116AC00E940903F501608B718B828B48
:10343000938B21A132A14A8D5B8D232B09F057C0BC
:10344000288D398D2130310509F051C049305105A1
:10345000E1F0483C510519F044305105D1F4D50153
:1034600058966D937D938D939C935B97E1E0F0E08C
:103470009296FC93EE939197C5010E940E2360E013
:1034800070E0CB010E94D60297CF83E090E092A338
:1034900081A3D5011A968D919C910E94A608912C2A
:1034A000D50190968C919097815090968C93892D10
:1034B000E8A1F9A10FB6F894FEBF0FBEEDBFA1962B
:1034C0000FB6F894DEBF0FBECDBFDF91CF911F9135
:1034D0000F91FF90EF90DF90CF90BF90AF909F90B3
:1034E0008F907F906F905F904F903F900895453000
:1034F000510509F061CFCDCFF50182859385F1E0CB
:10350000EF16FF0640F0D50192961C921E929197FD
:103510000E94A60851CF8DB69EB697012F5F3F4FF0
:10352000EDB7FEB7E21BF30B0FB6F894FEBF0FBE6C
:10353000EDBF0DB71EB70F5F1F4FA701B801DC012C
:103540008D919C910E9417038E159F0509F05FC015
:10355000EA8DFB8DE00FF11F10820E940903F50137
:10356000608B718B828B938B8F89843109F4ABC014
:10357000E8F48F3009F4A7C0813109F43CC28630E9
:1035800009F04EC2488D598DD12CC12CF12CE12C63
:1035900008EC10E030E020E060E0C5010E940B1E66
:1035A0000FB6F8949EBE0FBE8DBE06CF8932C9F00D
:1035B0008733B1F38D3109F033C2D50181A192A1D6
:1035C000892B01F7E1E0F0E09296FC93EE9391975E
:1035D000C5010E940E2360E070E0CB010E94D6027C
:1035E000D1CF86859785892B39F480E490E00E94BD
:1035F000282CF50197878687EA8CFB8CE00EF11E5C
:103600001A830983FC82EB820E151F0530F00FB67A
:10361000F8949EBE0FBE8DBE3CCF40E450E0B80192
:10362000D5011E968D919C910E94F833D5011E966E
:10363000ED91FC9117AEC3010E94EC22FC01808148
:10364000918100E510E08E159F0560F489819A81D3
:103650000097A9F12B813C818217930780F50E9486
:103660000F2E8B01D5011A968D919C910E94A60870
:10367000D5011A96ED91FC911B971E968D919C9108
:103680001F97918780871387028792961C921E92BC
:1036900091970E940903DC01CB0188589341A1094D
:1036A000B109F501848B958BA68BB78B808B918BA1
:1036B000A28BB38B808F918FA28FB38F71CF60E07D
:1036C00070E0CB01CECF888D998DD5015F969C930C
:1036D0008E935E974A8C5B8C6801C40CD51C1D8F41
:1036E0000C8FDF8ECE8E0C151D0508F013C1F8016E
:1036F000E080F180CE014C960E94EC22DC018D919D
:103700009C918C159D0508F005C18C8D9D8DFC014B
:103710002081213459F401960E94F12D4EE0342E7F
:10372000380E069744F033243A9405C0CE014C96E7
:103730000E94FF22382EF6E7EF16F2E7FF0609F4A3
:1037400006C138F531E6E31632E7F30609F4E6C0C0
:1037500044E6E41642E7F40609F478C050E7E516BB
:103760005DE6F50609F039C18C8D9D8D8C159D05A2
:1037700008F0D0C0FC0120812134A9F501960E94F7
:10378000F12D3EE0F32EF80E069794F1FF24FA9403
:103790002FC084E6E81687E7F80609F4A2C096E78A
:1037A000E91697E7F90609F4EAC0A1E6EA16A7E7E1
:1037B000FA0609F012C1CE014C960E94EC22DC01FF
:1037C0008D919C918C159D0508F0A4C061E0832D1E
:1037D0000E940302CE014C960E94FF22BC01832D61
:1037E0000E943F0297C0CE014C960E94FF22F82E05
:1037F000CE014C960E94EC220C8D1D8D6DEF71E078
:10380000C8010E94E83360E0892B79F060E072E043
:10381000C8010E94E833892B39F064E072E0C801E6
:103820000E94E833892B49F461E08F2D0E94030246
:10383000CE014C960E94EC2297CF68E072E0C8015E
:103840000E94E833892BA1F762E0EFCF7A8A698A78
:103850001C8A1B8A00E110E01E8B0D8B6BE072E06E
:10386000CE0141960E946F17032D10E0B801CE01E2
:1038700041960E946E19F801E85CFD4F8491F801B1
:10388000EC5DFD4FF490005F1D4FF801049160E086
:1038900070E0002389F081110E94AC01E02FF0E07C
:1038A000EE0FFF1FEA5FFD4FA591B491EC91FE2250
:1038B00061E070E009F460E0CE0141960E946E196B
:1038C0000B891C890150110929893A89D12CC12CF5
:1038D000F12CE12C50E040E064E1C5010E940B1E98
:1038E00019C0CE014C960E94EC22DC018D919C9176
:1038F0008C159D0578F461E0832D0E940302CE01B2
:103900004C960E94FF2261E0892B09F460E0832D30
:103910000E94D501F501178E168E42CE7A8A698AE9
:103920001C8A1B8AE0E1F0E0FE8BED8B6EE072E01A
:10393000CE0141960E946F17632D70E0CE01419633
:103940000E946E19832D0E949C02BC01B5CFE32D0D
:10395000F0E0FA83E983BFE1B315E0F2EE0FFF1F59
:10396000E45BFD4F259134912115310599F2E1E099
:1039700022393E0779F2C301F9010995CBCFCE0177
:103980004C960E94EC228C8D9D8D9C01201B310B4E
:10399000421A530A9A8389835C824B825E824D82EB
:1039A000E32DF0E0FA8BE98B0FE1031508F4B2CFB9
:1039B000EE0FFF1FE457FD4F25913491211531057E
:1039C00009F4A8CF11E02139310709F4A3CFB301DD
:1039D000CE014196F90109959DCFD5015E964D9195
:1039E0005C91D12CC12CF12CE12C02E010E030E0F4
:1039F00020E060E072CF8A8D9B8D800F911F1A832B
:103A000009839C838B830817190708F0C9CDC3016C
:103A10000E94EC22D5015F961C921E925E97C0CD4B
:103A2000F50112A211A2828593850E94A608B8CD45
:103A30000E9409032B013C01F501828593850E94B8
:103A40009308D50191962D913C912130310509F0D3
:103A50005EC0F501811109C0408E518E628E738E59
:103A600012A211A28285938518CD80899189A2899D
:103A7000B38993018201081B190B2A0B3B0BD90157
:103A8000C801893116EF9107A105B10548F7893CB6
:103A90009F4AA105B10590F484899589A689B789C3
:103AA00093018201081B190B2A0B3B0BD901C8019A
:103AB000893C9F4AA105B10508F46DCCF501808DC4
:103AC000918DA28DB38D93018201081B190B2A0BD6
:103AD0003B0BD901C80181379741A105B10508F415
:103AE0005ACCD12CC12CF12CE12C10E000E030E0BC
:103AF00020E050E040E066E0C5010E940B1ED501C9
:103B000058964D925D926D927C925B9744CC232B9C
:103B100009F041CCF501408D518D628D738D93017B
:103B20008201041B150B260B370BB901A801882352
:103B300081F0413757416105710508F42CCC82852D
:103B400093850E94A608D50192961C921E92919789
:103B5000A6CC493853416105710508F41CCC828517
:103B600093850E94A608D5011A960D911C91F80123
:103B700062857385C8010E944C08D8011C968C93FD
:103B80001C9781110DC01A968D919C9180359105DD
:103B900099F460E97FE1C8010E944C08F80184872C
:103BA000F8019484911014C0D50158964D925D92FD
:103BB0006D927C925B9774CC80399F4189F760E568
:103BC00070E0C8010E944C08D8011C968C93E8CF85
:103BD00081E090E0F501958F848F24853585F9018A
:103BE00001900020E9F731978F01021B130BD12CB4
:103BF000C12CF12CE12C41E050E06DE1C5010E94A7
:103C00000B1EF50184899589A689B789808F918FCC
:103C1000A28FB38F45CC2F923F924F925F926F92BB
:103C20007F928F929F92AF92BF92CF92DF92EF924C
:103C3000FF920F931F93CF93DF93CDB7DEB7C85496
:103C4000D1090FB6F894DEBF0FBECDBF4C0168AFEF
:103C50005AAF49AF27963FAF2EAF279721961FAF98
:103C60000EAF21972996FFAEEEAE29972396DFAED1
:103C7000CEAE2397DC011A968D919C910E949308F9
:103C8000882309F4B7C1B8ADBB2351F0B63041F079
:103C9000BD3131F0F40181A192A1019709F0AAC1CF
:103CA00088AD8F508630A0F5D40154964D915D912A
:103CB0006D917C9157975096CD90DD90ED90FC9052
:103CC0005397C416D506E606F70610F46A017B0181
:103CD000B2E4CB0ED11CE11CF11C0E940903A70128
:103CE0009601261B370B480B590BDA01C901B7FDAA
:103CF0009BC1C4010E9493190E940903A701960168
:103D0000261B370B480B590BDA01C901B7FFF1CF5E
:103D1000F40180819181019709F0B2C082E090E0C6
:103D200091838083228133814481558166817781AB
:103D300080859185A0E0FE017A960E94FC3209F40C
:103D400086C1FBABEAAB1DAA1CAA88E190E09FAB41
:103D50008EAB6BEF71E0CE01C2960E946F17D4015B
:103D600012964C90129713965C90139714966C9041
:103D7000149715967C9015971696BC91BBAFF401DD
:103D8000F781FCAFD40118962C90189719963C90A7
:103D9000198E9201A3016BAD7F2FC101A0E00E949B
:103DA000FC3209F44AC1FE0179962596FFAFEEAFC9
:103DB000259727E130E03EAF2DAF8AE0A82EB12C49
:103DC000C12CD12CE12CF12C00E010E09201A301D8
:103DD0006BAD7CADC1010E949D32F901ED5EFD4FDE
:103DE00080812596AEADBFAD25978E932596BFAF4A
:103DF000AEAF2597EDADFEAD3197FEAFEDAF9AE0DA
:103E0000A92EB12CC12CD12CE12CF12C00E010E01A
:103E10009201A3016BAD7CADC1010E949F322901CB
:103E20003A016BAF7CAF1C01A0E00E94FC3221F094
:103E30004DAD5EAD452B09F66DAD7EAD6C0F7D1FB2
:103E40006E5F7F4F09F0FEC0EAA9FBA98CA99DA96E
:103E50009C012F5F3F4F3DAB2CABE80FF91F108249
:103E60000CA91DA9015011092AA93BA9D12CC12CCB
:103E7000F12CE12C50E040E065E1C4010E940B1EF2
:103E800029AD3AAD232BB9F4D4015E960D90BC91C7
:103E9000A02DBAAFA9AFAB2B71F4F401848D958D31
:103EA000019609F4E9C0958F848FF401048CF58D97
:103EB000E02DFAAFE9AF27962EAD3FAD27972196BB
:103EC0000EAD1FAD21970B5F1F4F232B11F405E0A3
:103ED00010E029964EAD5FAD299790E080E0452B2C
:103EE00021F023968EAD9FAD2397080F191F58AD73
:103EF000598389AD9AAD9827892798279B838A8310
:103F000021968EAD9FAD21972396AEADBFAD239781
:103F10008A0F9B1F9827892798279D838C83D4011C
:103F20001A96ED91FC9180819181DC01ED91FC91DB
:103F30000280F381E02D45E050E0BE016F5F7F4FCE
:103F400009957C0160E070E0CB010E94D602B8AD1B
:103F5000BB2309F444C02196EEADFFAD2197EF2BB2
:103F6000E1F0D4011A96ED91FC9180819181DC0100
:103F7000ED91FC910280F381E02D21964EAD5FAD75
:103F8000219727966EAD7FAD27970995E80EF91E0C
:103F900060E070E0CB010E94D6022396EEADFFAD4B
:103FA0002397EF2BE1F0D4011A96ED91FC918081DB
:103FB0009181DC01ED91FC910280F381E02D23964B
:103FC0004EAD5FAD239729966EAD7FAD29970995CC
:103FD000E80EF91E60E070E0CB010E94D602E01608
:103FE000F10609F44EC0F40112A211A28285938554
:103FF0000E94A608C85BDF4F0FB6F894DEBF0FBE65
:10400000CDBFDF91CF911F910F91FF90EF90DF9087
:10401000CF90BF90AF909F908F907F906F905F9068
:104020004F903F902F900895D40190968C918111DC
:104030006FCEC4010E9493196BCE80E3888FBE01BE
:10404000685E7F4FCE01C2960E946F1709CFFA8338
:10405000E9831C821B8284E090E09E838D8361E172
:1040600072E0CE0101960E946F170B811C810150F6
:10407000110929813A81FACE81E090E0958F848FF1
:1040800014CF0E940903D40154966D937D938D93B0
:104090009C935797AFCFCF92DF92EF92FF920F93FF
:1040A0001F93CF93DF93CDB7DEB7C658D1090FB6B4
:1040B000F894DEBF0FBECDBF7C018B01CE0101960F
:1040C000CF57DF4F99838883C158D040CD57DF4FFA
:1040D00019821882C358D04080E890E0CB57DF4F58
:1040E00099838883C558D04067E372E0CE018F572B
:1040F0009F4F0E946F17B701CE018F579F4F0E94AD
:104100006E19B801CE018F579F4F0E946E19CD577F
:10411000DF4F08811981C358D04001501109CF5792
:10412000DF4F28813981C158D040D12CC12CF12CCE
:10413000E12C50E040E064E186E795E00E940B1E30
:10414000CA57DF4F0FB6F894DEBF0FBECDBFDF9169
:10415000CF911F910F91FF90EF90DF90CF90089536
:10416000CF92DF92EF92FF920F931F93CF93DF9343
:10417000CDB7DEB7C75AD1090FB6F894DEBF0FBE70
:10418000CDBF8EE00E949C028C01CE010196CE55DF
:10419000DF4F99838883C25AD040CC55DF4F1982B4
:1041A0001882C45AD04080E890E0CA55DF4F998306
:1041B0008883C65AD04067E372E0CE018E559F4F88
:1041C0000E946F1761E070E0CE018E559F4F0E94F4
:1041D0006E19B801110F880B990B0E94CA3020E0AC
:1041E00030E04AEF5EE30E9429318E010F571F4FE6
:1041F00023E045E00E940A2CB801CE018E559F4F66
:104200000E946F17CC55DF4F08811981C45AD040E6
:1042100001501109CE55DF4F28813981C25AD04053
:10422000D12CC12CF12CE12C50E040E064E186E778
:1042300095E00E940B1EC955DF4F0FB6F894DEBF04
:104240000FBECDBFDF91CF911F910F91FF90EF90E7
:10425000DF90CF9008951F920F920FB60F92112406
:104260002F933F938F939F93AF93BF938091B4030A
:104270009091B503A091B603B091B7033091B30309
:1042800023E0230F2D3758F50196A11DB11D209372
:10429000B3038093B4039093B503A093B603B09394
:1042A000B7038091B8039091B903A091BA03B0917C
:1042B000BB030196A11DB11D8093B8039093B90370
:1042C000A093BA03B093BB03BF91AF919F918F911D
:1042D0003F912F910F900FBE0F901F90189526E8D9
:1042E000230F0296A11DB11DD2CF1F920F920FB6C0
:1042F0000F9211242F933F934F935F936F937F936C
:104300008F939F93AF93BF93EF93FF9389ED93E0C8
:104310000E94E503FF91EF91BF91AF919F918F9123
:104320007F916F915F914F913F912F910F900FBEB1
:104330000F901F9018951F920F920FB60F92112495
:104340002F938F939F93EF93FF93E091E903F09165
:10435000EA038081E091EF03F091F00382FD1BC03E
:1043600090818091F2038F5F8F732091F303821706
:1043700041F0E091F203F0E0E752FC4F958F80931B
:10438000F203FF91EF919F918F912F910F900FBEAC
:104390000F901F9018958081F4CF1F920F920FB647
:1043A0000F9211242F933F934F935F936F937F93BB
:1043B0008F939F93AF93BF93EF93FF938091B90037
:1043C000887F803609F44AC0F0F5883209F4A7C026
:1043D00018F5803109F49BC0B8F4882309F4F9C0BA
:1043E000883009F494C0FF91EF91BF91AF919F91F4
:1043F0008F917F916F915F914F913F912F910F908E
:104400000FBE0F901F901895883109F488C0803234
:1044100051F780930E0314C0803409F49DC040F41A
:104420008033B9F38833F9F680930E0385ECB0C07E
:10443000803509F485C0883509F496C0883499F62A
:104440000E949717D0CF883909F48CC038F5883787
:1044500029F050F4883611F0803729F683E08093F4
:1044600010031092E90257C0883809F47BC08039E4
:1044700019F0803809F0B7CF8091E902803208F056
:1044800071C0E091E90281E08E0F8093E902809192
:10449000BB00F0E0E753FD4F80833DC0803B39F027
:1044A000E0F4803A09F479C0883A09F09CCF84E0BE
:1044B000809310031092C8021092C702E0913A0351
:1044C000F0913B0309958091C70281110FC081E0F3
:1044D0008093C7021092A70209C0803C09F4A6CFBE
:1044E000883C09F4A3CF883B09F07DCFE091C80256
:1044F00081E08E0F8093C802F0E0E955FD4F808186
:104500008093BB009091C8028091C70229C080911E
:10451000EB028093BB0085EC8093BC0064CF90914C
:104520000D0380910C03981758F5E0910D0381E07D
:104530008E0F80930D03F0E0E451FD4F8081E9CFB1
:10454000E0910D0381E08E0F80930D038091BB00FD
:10455000F0E0E451FD4F808390910D0380910C03B6
:104560009817C8F285E8D8CFE0910D0381E08E0F4F
:1045700080930D038091BB00F0E0E451FD4F8083F8
:1045800080910F0381115CCF81E08093EA0284EA7D
:104590008093BC001092100326CF85EC8093BC0062
:1045A000109210038091E902803230F4E091E90228
:1045B000F0E0E753FD4F10826091E90270E0E09176
:1045C0003803F091390389EC92E009951092E902E1
:1045D0000ACF10920E0334CFDC01ED91FC911197BC
:1045E000309761F012962D913C911397E217F307E3
:1045F00028F401900020E9F7ED93FC930895FC0165
:1046000080819181009739F022813381821793074D
:1046100010F40C94F12D90E080E00895AF92BF92D9
:10462000CF92DF92EF92FF920F931F93CF93DF937E
:10463000CDB7DEB7CC5CD1090FB6F894DEBF0FBEA4
:10464000CDBF5C01CE0189579F4FC953DF4F99837E
:104650008883C75CD040C753DF4F19821882C95C7A
:10466000D04080E490E0C553DF4F99838883CB5CD2
:10467000D04064E272E0CE0189539F4F0E946F17D1
:1046800069E272E0CE0189539F4F0E946F1746E89E
:1046900050E06AE671E0CE0101960E94362EC753C3
:1046A000DF4FC880D980C95CD04081E0C81AD108EA
:1046B000C953DF4FE880F980C75CD04006E810E0BE
:1046C0009E012F5F3F4F50E040E061E1C5010E9435
:1046D0000B1EC453DF4F0FB6F894DEBF0FBECDBF25
:1046E000DF91CF911F910F91FF90EF90DF90CF90CE
:1046F000BF90AF900895E9EDF3E01382128288EE47
:1047000093E0A0E0B0E084839583A683B78328E498
:1047100031E03183208325EC30E03587248724EC99
:1047200030E03787268720EC30E0318B208B21EC7E
:1047300030E0338B228B22EC30E0358B248B26EC5F
:1047400030E0378B268B118E128E138E148EE6E797
:10475000F4E01382128284839583A683B7838AE56B
:1047600091E091838083E2E8F4E08AEA91E091832A
:1047700080831282138214821582E8E8F4E0918328
:1047800080831282138214821582EEE8F4E0918312
:1047900080831282138214821582E4E9F4E091830B
:1047A00080831282138214821582EAE9F4E09183F5
:1047B00080831282138214821582E6EAF4E09183E8
:1047C00080831282138214821582E0EAF4E09183DE
:1047D00080831282138214821582ECEAF4E09183C2
:1047E00080831282138214821582E2EBF4E09183BB
:1047F00080831282138214821582EBEBF5E09183A1
:1048000080831282138214821582ECEAF5E013820F
:10481000128228E731E03183208324E0248728EEC8
:1048200033E036872587AFE9B5E013969C938E93E6
:10483000129714961D921D921D921C92179719960D
:104840001C921E9218971B961C921E921A971C96E9
:104850001C921C971196FC93EE9340E757E160E0A1
:1048600070E04483558366837783E6E7F5E0118241
:104870001082128213821482158216821782108689
:104880001186B387A2871586148617861686108A26
:10489000118A128A138A148A158A168A178A108E28
:1048A000118E128E138E158E148E178E168E10A2E8
:1048B00012A211A28FEF9FEF90937505809374055C
:1048C000E8EBF4E0138212828CE691E0918380831E
:1048D00087E2848380E1818782E08287138608955E
:1048E000CF93DF93CDB7DEB7A9970FB6F894DEBFAD
:1048F0000FBECDBF789484B5826084BD84B58160DD
:1049000084BD85B5826085BD85B5816085BD80919A
:104910006E00816080936E00109281008091810012
:10492000826080938100809181008160809381000A
:10493000809180008160809380008091B1008460CC
:104940008093B1008091B00081608093B00080912D
:104950007A00846080937A0080917A0082608093EC
:104960007A0080917A00816080937A0080917A0049
:10497000806880937A001092C100E091E903F09181
:10498000EA0382E08083E091E503F091E603108280
:10499000E091E703F091E8038FEC80831092F1033C
:1049A000E091ED03F091EE0386E08083E091EB036C
:1049B000F091EC03808180618083E091EB03F091C2
:1049C000EC03808188608083E091EB03F091EC033D
:1049D000808180688083E091EB03F091EC0380811B
:1049E0008F7D808310923F0310923E0310923D030F
:1049F00010923C030E94A00485E193E090933B0356
:104A000080933A0386E193E09093390380933803CF
:104A10001092BD048091C204823018F098E0909307
:104A2000BD048093C00462E370E080E090E00E94E7
:104A3000D6026091C30488EB94E00E94640568EE9E
:104A400073E080E090E00E94D60260E388EB94E09F
:104A50000E9484090BE416E4C8010197F1F760E3B2
:104A600088EB94E00E948409C8010197F1F760E3A4
:104A700088EB94E00E94840983E592E00197F1F7C6
:104A800060E288EB94E00E9484096091BD0460625A
:104A900040E088EB94E00E949D0984E08093BE048E
:104AA00040E06CE088EB94E00E949D090E942D0A92
:104AB00082E08093BF0440E066E088EB94E00E94CF
:104AC0009D0940E062E088EB94E00E949D090BE3C1
:104AD0001FE1C8010197F1F788E08093C30460E00B
:104AE00088EB94E00E9464050E942D0A40E062E099
:104AF00088EB94E00E949D09C8010197F1F760E0FE
:104B000080E00E94B4098AE392E00E942B0968EEDB
:104B100073E080E090E00E94D6020E942D0A60E0DF
:104B200080E00E94B4098AE492E00E942B0961E0CF
:104B300080E00E94B4098DE492E00E942B0961E0BC
:104B400083E00E94030260E08FE00E94030261E0C4
:104B500085E00E94030261E084E00E94030260E0BD
:104B60008EE00E9403028EEF809399059DEE909354
:104B70009A052AEB20939B0580939C0580939D05C5
:104B800090939E05A0E5B2E0E1E0F0E09F012F5F89
:104B90003F4F4D91EA58FA4F83A1842783A3F9012F
:104BA0002630310514F0E1E0F0E022E0A037B20752
:104BB00069F78091A60381112AC010928E0310928A
:104BC0008D0388EE93E0A0E0B0E080938F03909394
:104BD0009003A0939103B09392038EE191E09093A0
:104BE0008C0380938B038AEA91E090939A038093DD
:104BF000990310929B0310929C0310929D031092B4
:104C00009E0384E08093A30381E08093A60388E45D
:104C100093E090934703809346038091450381116D
:104C2000ADC060E372E080E090E00E94D602DFB6A3
:104C3000F8940AE112E0EEE2EE2EE2E0FE2E809120
:104C40004303811125C0F8018491F7019491E82F65
:104C5000F0E0EE0FFF1FEE50FE4FA591B4918C9146
:104C6000982321F461E08AE00E94D50161E08AE0A6
:104C70000E9403028CB580618CBD8CB580648CBDB4
:104C800061E08DE00E94030261E08BE00E9403027C
:104C9000809143038F5F80934303DFBEF80104914B
:104CA000E02FF0E0EE0FFF1FE450FE4F859194914E
:104CB0009093420380934103F701E490E092400314
:104CC00061E08AE00E9403020E94650680E591E0AF
:104CD0000E94930184E38093D80380E80E94310707
:104CE0000E94080C882309F4FDC188E00E94310766
:104CF0000E94F50B883009F0F5C180E10E94310770
:104D00000E94F50B803109F0EDC180E00E9431076F
:104D10000E94F50B182F8111E5C141E050E0BE0162
:104D20006F5F7F4F8FE190E00E94800A898183301E
:104D300009F0D8C180E48093440342E06EE170E062
:104D4000812F0E948D0742E06FE170E0812F0E9469
:104D50008D071F5F143089F740E06EE170E0812F0E
:104D60000E948D0740E06FE170E0812F0E948D0767
:104D70001F5F183089F781E08093450380E591E05B
:104D80000E94930146E050E069E975E089E090E017
:104D90000E9481068AEA91E09A8389831B821C82A1
:104DA0001D821E8244E050E0BE016D5F7F4F8FE0A8
:104DB00090E00E9481060091460310914703D801BC
:104DC00092961D921D921D921C929597F80116A223
:104DD00017A210A611A69A961D921D921D921C92C2
:104DE0009D9780E69AEEA0E0B0E086AB97ABA0AFCF
:104DF000B1AF80EA9FE0A0E0B0E082AF93AFA4AF94
:104E0000B5AFD801189686E0FD01282F11922A959A
:104E1000E9F79801225F3F4F94E1F90111929A95C9
:104E2000E9F7E9E9F5E001900D928A95E1F72C5C4C
:104E30003F4F3DA32CA3D9011C920E94992D2FEC2A
:104E400037E040E050E00E94E731DC01CB01019601
:104E5000A11DB11DF80184839583A683B783808348
:104E60009183A283B3835801F3E4AF0EB11CC50153
:104E70000E94500B64E470E0C5010E94B90E8823C3
:104E800009F499C10E9409032B013C0148EEC42E8C
:104E900043E0D42EE12CF12C52E0252E912C812CD4
:104EA000ACA1BDA18C918330B9F181118EC1F80103
:104EB00084819581A681B7810196A11DB11D84834E
:104EC0009583A683B7830E9409036419750986092F
:104ED0009709A70196010E945032A90161E0C8011B
:104EE0000E94611681E0ACA1BDA18C93F1E08F1608
:104EF0009104B1F20E9409036419750986099709A2
:104F0000D801D6962D913D914D915C91D997261758
:104F100037074807590710F6C5010E94500BF801E2
:104F200084819581A681B7810196A11DB11D8483DD
:104F30009583A683B7830E940903F801FE966083D8
:104F40007183828393838A94892809F034C180E530
:104F500091E00E9493010091460310914703B8012C
:104F6000625F7F4FCE0101960E945E1244E050E0E6
:104F7000BE016D5F7F4F8FE090E00E948106B80117
:104F80006A5E7F4FCE0101960E945E1244E050E0BF
:104F9000BE016D5F7F4F81E090E00E948106B80105
:104FA0006E5E7F4FCE0101960E945E1244E050E09B
:104FB000BE016D5F7F4F85E090E00E948106B801E1
:104FC000625E7F4FCE0101960E945E128B819C81B2
:104FD000AD81BE818093A2049093A304A093A40406
:104FE000B093A5040E94B1027F738091000190915B
:104FF000010168277927709301016093000168EE31
:1050000073E080E090E00E94D6028AEA91E09A8301
:1050100089831B821C821D821E8280E591E00E9492
:10502000930144E050E0BE016D5F7F4F8FE090E060
:105030000E94800A80E592E0909383058093820528
:105040000E940903DC01CB0188589341A109B109F1
:1050500080938A0590938B05A0938C05B0938D0562
:105060008093860590938705A0938805B093890562
:1050700080938E0590938F05A0939005B093910532
:10508000E0918005F091810581E792E0918780872A
:1050900080E590E0938782878091800590918105DB
:1050A0000E94A60810929805109297050E94090385
:1050B0006B017C018091970590919805019709F407
:1050C0004FC10E9409036C197D098E099F09603543
:1050D00076448105910508F043C186E795E00E947A
:1050E0009319E8CF87E38093D80380E80E943107C3
:1050F0000E94080C882329F188E00E9431070E9451
:10510000F50B8830F1F480E10E9431070E94F50B25
:10511000182F8031B1F480E00E9431070E94F50B16
:1051200081110FC041E050E0BE016F5F7F4F89E306
:1051300090E00E94800A8981843019F4109344031E
:105140001ACE83E38093D80380E80E9431070E943F
:10515000080C882371F180E10E9431070E94F50B51
:10516000803139F582E10E9431070E94F50B8231CE
:1051700001F580E00E9431070E94F50B811119C0F2
:1051800084E08093440315E51BA341E050E0BE0199
:105190006D5D7F4F8BE190E00E9481061AA341E094
:1051A00050E0BE016E5D7F4F8AE190E00E94810673
:1051B000E2CD1092D80360E177E280E090E00E94B7
:1051C000D602F0E0E0E00995FFCF8430F9F4F80171
:1051D00084819581A681B7810196A11DB11D84832B
:1051E0009583A683B7830E9409036419750986090C
:1051F0009709A70196010E945032A90163E0C801F6
:105200000E946116ACA1BDA12C9270CE813059F5DF
:10521000F80142AD53AD64AD75AD9E012F5F3F4FB8
:10522000C8010E94CF17382EF2E08F1392C08981F7
:105230009A81AB81BC81F80184839583A683B7836F
:105240000E9409036419750986099709A701960147
:105250000E945032A90163E0C8010E946116ACA10E
:10526000BDA13C9243CE823009F040CEF80142AD60
:1052700053AD64AD75AD9E012F5F3F4FC8010E94D5
:10528000CF17382EF5E08F135DC0E3E0ACA1BDA1D0
:10529000EC93F80182A193A1A4A1B5A1892B8A2B3B
:1052A0008B2B41F424E833E040E050E022A333A309
:1052B00044A355A3F80186A197A1A0A5B1A5892B68
:1052C0008A2B8B2B61F482A193A1A4A1B5A1B695E1
:1052D000A7959795879586A397A3A0A7B1A7F8014F
:1052E00082A593A5A4A5B5A5892B8A2B8B2BA9F400
:1052F00082A193A1A4A1B5A1AC01BD0123E0769543
:105300006795579547952A95D1F7841B950BA60B62
:10531000B70B82A793A7A4A7B5A7F80186A197A169
:10532000A0A5B1A586A797A7A0ABB1AB82A593A571
:10533000A4A5B5A582AB93ABA4ABB5AB88248394ED
:10534000912CD4CDF6E08F1304C0ACA1BDA11C926A
:10535000CDCDBFEF3B12CACDECA1FDA11082C6CDD1
:105360008091970590919805019709F095CE8091CD
:1053700074059091750597FF22C00E940903E4EC23
:10538000F4E050E040E026E1249FD001259FB00DDD
:1053900011248D010C531B4FD801322F1D923A95C9
:1053A000E9F760837183828393834F5F5F4F7696C3
:1053B0004830510549F71092750510927405809197
:1053C0007405909175050897CCF5E4ECF4E090E055
:1053D00080E024813581232B09F0EDC126813781BE
:1053E000232B09F0E8C126E1289F8001299F100D99
:1053F00011240C531B4F88EE93E0A0E0B0E0F801BD
:1054000083879487A587B68780EB90E29583848312
:105410001286108A178681E0838B0E940903D801C7
:105420006D937D938D939C931397809174059091C8
:105430007505019690937505809374052224239435
:10544000312C8FE00E949C029695879596958795C2
:105450006FEF70E0681B790B83E00E943F0264E607
:1054600070E080E090E00E94D6028EE00E949C02F4
:10547000BC01990F880B990B0E94CA3020E030E0E4
:105480004AEF5EE30E9429318E010F5F1F4F22E039
:1054900044E00E940A2C7C01009709F493C1FC01AE
:1054A00001900020E9F731978F01081B190BB80113
:1054B0006F5F7F4F90E080E00E940E336C01009799
:1054C00009F485C1FC011082B7010E94F13360E04C
:1054D00082E00E94B409A801B60188EB94E00E9422
:1054E000670380E390E00E94540489ED93E00E94FA
:1054F000C503892BD1F389ED93E00E94A303182FF4
:105500008093AE0389ED93E00E94C503892BD1F30C
:1055100089ED93E00E94A30319A718A608A519A571
:10552000082B1093B2030093B10361E082E00E9464
:10553000B409A80170E060E02AE088EB94E00E94E2
:10554000D20886E795E00E9493190E9409032B0177
:105550003C0184ECE82E84E0F82E8701D8015596B2
:105560001C921E92549714968D919C911597892B9D
:1055700031F416968D919C91892B09F449C0D8017C
:105580002D913D914D915C9113972CA33DA34EA37A
:105590005FA3C301B201621B730B840B950B1B96B7
:1055A0008D909D90AD90BC901E97681579058A05E9
:1055B0009B0570F181149104A104B10409F40AC19E
:1055C000A50194010E945032C501B4010E948632A7
:1055D0002CA13DA14EA15FA1620F731F841F951FD7
:1055E000D8016D937D938D939C931397D801539617
:1055F0008C915397882361F01F962D913C91509781
:105600002115310509F0ECC055963C922E92549725
:105610000A5E1F4F35E00437130709F09FCF10E0F3
:1056200000E0D70154968D919C915597892BE9F113
:105630001A968C911A97882309F4E7C01696ED9173
:10564000FC91179718968D919C910995F701848983
:105650009589029751F58091740590917505892B74
:1056600021F184819581892B21F486819781892B71
:10567000E1F026E1209FF001219FF00D1124EC5371
:10568000FB4FDF011D922A95E9F70E940903F701FC
:1056900060837183828393838091740590917505F3
:1056A000019790937505809374050F5F1F4FF6E186
:1056B000EF0EF11C0830110509F0B3CF8EE00E9407
:1056C0009C02BC01990F880B990B0E94CA3020E004
:1056D00030E04AEF5EE30E94293120E030E04CE008
:1056E00052E40E9481321816C4F48091AF038823DB
:1056F000A1F01092AF0360E085E00E94D50170E058
:1057000060E085E090E00E944B2060E088E00E942D
:10571000B4098DE792E00E942B098091B10390912A
:10572000B203803D9740A0F58091B003811130C055
:105730000E94440881E08093B00361E070E090E053
:1057400080E00E944B2061E088E00E94B40982EC76
:1057500091E00E942B098091B1039091B203883BA4
:105760009B40B0F08091B003882391F00E943C08E8
:105770001092B00370E060E090E080E00E944B2067
:1057800061E088E00E94B4098CEC91E00E942B0952
:10579000C114D10419F0C6010E94C42C40E050E0AD
:1057A000452B09F44ECE0E94D103882309F449CE3B
:1057B0000E94000046CE019676968830910509F049
:1057C00008CE3CCE10E000E0D12CC12C80CE10E001
:1057D00000E07DCEF801408251826282738206CF62
:1057E000F801818992898217930708F011CF358AD1
:1057F000248A0196928B818B8217930708F408CF35
:1058000022E030E0358B248B03CF1496ED91FC9190
:1058100009951CCFEF920F931F93CF93DF93E8016D
:1058200034E047FD34E1042E000C550B57FF03C054
:10583000519541955109E32E022F242FAE010E946C
:10584000812ECE01DF91CF911F910F91EF9008959E
:105850000F931F93CF93DF938230910510F482E072
:1058600090E0E091C305F091C40530E020E0B0E0A5
:10587000A0E0309799F42115310509F44AC0281B9E
:10588000390B24303105D8F58A819B81611571056A
:1058900089F1FB0193838283FE0111C04081518114
:1058A0000281138148175907E0F04817590799F406
:1058B000109761F012960C93129713961C933296E0
:1058C000CF01DF91CF911F910F9108950093C305F0
:1058D0001093C405F4CF2115310551F04217530739
:1058E00038F0A901DB019A01BD01DF01F801C1CF48
:1058F000EF01F9CF9093C4058093C305CDCFFE018E
:10590000E20FF31F81939193225031093983288349
:10591000D7CF2091C1053091C205232B41F42091AE
:105920000401309105013093C2052093C1052091F7
:105930000201309103012115310541F42DB73EB725
:105940004091060150910701241B350BE091C105E0
:10595000F091C205E217F307A0F42E1B3F0B2817A6
:10596000390778F0AC014E5F5F4F2417350748F0D8
:105970004E0F5F1F5093C2054093C10581939193D1
:105980009FCFF0E0E0E09CCFCF93DF930097E9F06A
:10599000FC01329713821282A091C305B091C40515
:1059A000ED0130E020E01097A1F420813181820FD9
:1059B000931F2091C1053091C2052817390709F0BE
:1059C00061C0F093C205E093C105DF91CF910895C6
:1059D000EA01CE17DF07E8F54A815B819E01411598
:1059E0005105B1F7E901FB83EA8349915991C40F4D
:1059F000D51FEC17FD0761F4808191810296840F19
:105A0000951FE90199838883828193819B838A838F
:105A1000F0E0E0E012968D919C9113970097B9F514
:105A20002D913C911197CD010296820F931F2091E9
:105A3000C1053091C2052817390739F6309751F55D
:105A40001092C4051092C305B093C205A093C1057E
:105A5000BCCFD383C28340815181840F951FC81767
:105A6000D90761F44E5F5F4F88819981480F591FB4
:105A7000518340838A819B819383828321153105E1
:105A800009F0B0CFF093C405E093C3059ECFFD01AC
:105A9000DC01C0CF13821282D7CF8F929F92AF9238
:105AA000BF92CF92DF92EF92FF92CF93DF93EC0100
:105AB000688179818A819B816115710581059105D4
:105AC00021F464E279ED8BE597E02DE133EF41E0DD
:105AD00050E00E94E73149015A019B01AC01A7EA5D
