:020000040000FA
:100000000C9467010C948F010C948F010C948F0158
:100010000C948F010C948F010C948F010C948F0120
:100020000C948F010C948F010C948F010C948F0110
:100030000C948F010C948F010C948F010C948F0100
:100040000C940A210C948F010C947A210C94542165
:100050000C948F010C948F010C948F010C948F01E0
:100060000C94AC210C948F0100407A10F35A00A03C
:10007000724E18090010A5D4E80000E87648170071
:1000800000E40B54020000CA9A3B000000E1F505B1
:10009000000080969800000040420F000000A086FB
:1000A00001000000102700000000E803000000002D
:1000B0006400000000000A000000000001000000D1
:1000C00000002C76D888DC674F0823DFC1DFAE59EB
:1000D000E1B1B796E5E3E453C63AE651997696E87E
:1000E000E6C28426EB898C9B62ED407C6FFCEFBC02
:1000F0009C9F40F2BAA56FA5F490055A2AF75C932D
:100100006B6CF9676DC11BFCE0E40D47FEF520E662
:10011000B500D0ED902E0300943577050080841E45
:10012000080000204E0A000000C80C333333330FA0
:10013000986E12831141EF8D2114893BE65516CF3D
:10014000FEE6DB18D1844B381BF77C1D901DA4BB49
:10015000E424203284725E228100C9F124ECA1E5FE
:100160003D27626C6E6B696E66006D637500302EA4
:10017000302E300066772D7479706500544D504CE8
:10018000336D786348686E4747006275696C640038
:1001900041756720203820323032342032303A32F4
:1001A000343A353700626C796E6B00312E332E3263
:1001B00000682D6265617400343500627566662DD5
:1001C000696E003235360064657600417264756987
:1001D0006E6F20556E6F006370750041546D6567DA
:1001E000613332385000636F6E0057353130300064
:1001F000000000000000240027002A00000000008A
:10020000250028002B000000000023002600290004
:1002100004040404040404040202020202020303AC
:1002200003030303010204081020408001020408B4
:100230001020010204081020000000080002010044
:10024000000304070000000000000000920192017A
:100250009201920192019201920192019201920106
:1002600092019201920192019201920192019201F6
:1002700092019201920192019201920192019201E6
:1002800092019201920192019201920191019101D8
:1002900091019101100AEC099101910191019101E3
:1002A00091019101910191019101910191019101BE
:1002B00091019101910191019101910191019101AE
:1002C0009101910191019101910191015A23112410
:1002D0001FBECFEFD8E0DEBFCDBF12E0A0E0B1E09F
:1002E000ECE6F9E602C005900D92A238B107D9F705
:1002F00025E0A2E8B2E001C01D92AD3BB207E1F7F4
:1003000011E0C7E6D1E004C02197FE010E94B53399
:10031000C636D107C9F70E944F240C94B4340C940C
:100320000000089508958CBD9DBD089520E3FC0153
:1003300020833296862F82958F706F706A3030F4EA
:10034000605D6293682F8111F5CF0895695CF9CFE4
:10035000FC01818D928D0895833081F028F48130E5
:1003600099F08230A9F008958730A9F08830C9F05B
:100370008430B1F4809180008F7D03C08091800033
:100380008F7780938000089584B58F7784BD08951A
:1003900084B58F7DFBCF8091B0008F778093B000C4
:1003A00008958091B0008F7DF9CF1F93CF93DF9395
:1003B000282F30E0F901E85CFD4F8491F901EC5DF4
:1003C000FD4FD491F901E05FFD4FC491CC23A9F01A
:1003D000162F81110E94AC01EC2FF0E0EE0FFF1FF1
:1003E000E450FE4FA591B4918FB7F894EC911111A0
:1003F00008C0D095DE23DC938FBFDF91CF911F9192
:100400000895DE2BF8CFCF93DF9390E0FC01EC5DF5
:10041000FD4F2491805F9D4FFC0184918823C9F09A
:1004200090E0880F991FFC01EE50FE4FA591B4910A
:10043000FC01E450FE4FC591D49161110DC09FB7EE
:10044000F8948C91209582238C938881282328838B
:100450009FBFDF91CF910895623051F49FB7F89418
:100460003C91822F809583238C93E8812E2BEFCFB4
:100470008FB7F894EC912E2B2C938FBFEACF1F935C
:10048000CF93DF93182FEB0161E00E9403022097C6
:1004900039F460E0812FDF91CF911F910C94D50149
:1004A000CF3FD10511F461E0F5CFE12FF0E0E85C3A
:1004B000FD4FE491E33031F140F4E130B1F0E2304E
:1004C000E1F0C038D1057CF7E4CFE73029F1E8301E
:1004D00059F1E430B1F78091800080628093800010
:1004E000D0938B00C0938A0004C084B5806884BD1B
:1004F000C7BDDF91CF911F91089584B5806284BDFF
:10050000C8BDF7CF80918000806880938000D09331
:100510008900C0938800EDCF8091B00080688093FF
:10052000B000C093B300E5CF8091B00080628093AB
:10053000B000C093B400DDCF8E3008F08E508770CD
:10054000806480937C0080917A00806480937A003C
:1005500080917A0086FDFCCF80917800909179009F
:1005600008953FB7F8948091B0039091B103A091A2
:10057000B203B091B30326B5A89B05C02F3F19F075
:100580000196A11DB11D3FBFBA2FA92F982F882713
:10059000BC01CD01620F711D811D911D42E0660FEE
:1005A000771F881F991F4A95D1F708958F929F92C0
:1005B000AF92BF92CF92DF92EF92FF926B017C01DC
:1005C0000E94B1024B015C01C114D104E104F104A9
:1005D000B9F00E94B102681979098A099B09683E3D
:1005E00073408105910580F321E0C21AD108E1082A
:1005F000F10888EE880E83E0981EA11CB11CE4CFA0
:10060000FF90EF90DF90CF90BF90AF909F908F9032
:1006100008952FB7F8946091AC037091AD03809169
:10062000AE039091AF032FBF0895089508950895E4
:100630004F925F926F927F92AF92BF92CF92DF9272
:10064000EF92FF920F931F93CF93DF93EC016B0117
:100650007B01E40EF51E8B015801AC18BD080E1588
:100660001F0511F10E940903688779878A879B8794
:10067000E881F9810284F385E02DCE01099597FF89
:1006800023C00E940903488459846A847B846419C6
:100690007509860997094C805D806E807F8064159E
:1006A00075058605970520F3C501DF91CF911F9150
:1006B0000F91FF90EF90DF90CF90BF90AF907F9021
:1006C0006F905F904F900895F80181938F01C4CF90
:1006D000AF92BF92CF92DF92EF92FF920F931F9350
:1006E000CF93DF936C017B018B01040F151FEB018E
:1006F0005E01AE18BF08C017D10759F06991D60145
:10070000ED91FC910190F081E02DC6010995892BB6
:1007100079F7C501DF91CF911F910F91FF90EF9075
:10072000DF90CF90BF90AF900895FC01538D448D22
:10073000252F30E0842F90E0821B930B541710F08C
:10074000CF96089501970895FC01918D828D981799
:1007500061F0A28DAE0FBF2FB11D5D968C91928D71
:100760009F5F9F73928F90E008958FEF9FEF0895A2
:10077000FC01918D828D981731F0828DE80FF11D6B
:10078000858D90E008958FEF9FEF0895FC01918D86
:10079000228D892F90E0805C9F4F821B91098F737F
:1007A0009927089581ED93E00E94C60321E0892BEB
:1007B00009F420E0822F089580E090E0892B29F051
:1007C0000E94D20381110C9400000895FC01A48DB5
:1007D000A80FB92FB11DA35ABF4F2C91848D90E063
:1007E00001968F739927848FA689B7892C93A08946
:1007F000B1898C91837080648C93938D848D9813D0
:1008000006C00288F389E02D80818F7D8083089562
:10081000EF92FF920F931F93CF93DF93EC0181E050
:10082000888F9B8D8C8D98131AC0E889F9898081F7
:1008300085FF15C09FB7F894EE89FF896083E8892A
:10084000F98980818370806480839FBF81E090E01C
:10085000DF91CF911F910F91FF90EF900895F62EA9
:100860000B8D10E00F5F1F4F0F731127E02E8C8D43
:100870008E110CC00FB607FCFACFE889F989808188
:1008800085FFF5CFCE010E94E603F1CFEB8DEC0F93
:10089000FD2FF11DE35AFF4FF0829FB7F8940B8FA5
:1008A000EA89FB8980818062CFCFCF93DF93EC010F
:1008B000888D8823B9F0AA89BB89E889F9898C9148
:1008C00085FD03C0808186FD0DC00FB607FCF7CF04
:1008D0008C9185FFF2CF808185FFEDCFCE010E9404
:1008E000E603E9CFDF91CF9108952091C302260F4F
:1008F0003327331F21323105ECF420910C03FC0126
:1009000090E080E0243069F082E00895A091C30275
:100910002191AC014D555D4FA40FB52FB11D2C9306
:100920000196861798F38091C302680F6093C30203
:1009300080E0089581E0089510920C0381E0809397
:100940000B031092E60261E082E10E94D50161E0B2
:1009500083E10E94D501E9EBF0E080818E7F808306
:1009600080818D7F808388E48093B80085E48093C4
:10097000BC000895CF93DF9391E09093A202882367
:10098000B9F0C091B800D091BA008091BC008A7BC8
:100990008093BC0060E082E10E94D50160E083E1C9
:1009A0000E94D5010E949C04D093BA00C093B80065
:1009B000DF91CF910895E0913B0380913A03E817CE
:1009C00030F4F0E0EE57FD4F808190E008958FEF16
:1009D0009FEF089590913B0380913A032FEF3FEFF3
:1009E000981748F4E92FF0E0EE57FD4F208130E0F2
:1009F0009F5F90933B03C901089580913A039091C2
:100A00003B03891B990B0895CF92DF92EF92FF92DF
:100A10000F931F93CF93DF937C01CB018A01209129
:100A20001203222389F0EB016B01C40ED51ECC15F5
:100A3000DD0569F06991D701ED91FC910190F0819C
:100A4000E02DC7010995F3CF642F0E947504C801FA
:100A5000DF91CF911F910F91FF90EF90DF90CF909A
:100A60000895CF93DF931F92CDB7DEB769832091AE
:100A700012032223F9F020913803203258F021E0AC
:100A800030E0FC013383228390E080E00F90DF911F
:100A9000CF91089580913903E82FF0E0ED5EFC4F8F
:100AA000998190838F5F809339038093380381E02D
:100AB00090E0ECCF61E0CE0101960E947504F7CF83
:100AC000CF92DF92EF92FF920F931F93CF93DF931A
:100AD000FC01C48121E020931203C09333031092E0
:100AE0003903109238038385682B8EE694E00E94C8
:100AF0003105D0913803D13208F092C00E94B10282
:100B00006B017C0180910C03811165C082E08093B0
:100B10000C0381E080930B038FEF80930A03109204
:100B20000903D0930803A3E1B3E0E8EEF2E080E02C
:100B3000D81385C01092E7028091E702CC0FC82B32
:100B4000C093E7028091E602813009F07CC01092E8
:100B5000E6020E94B1026B017C018091E702809362
:100B6000BB0080910E0390910F03A0911003B091F0
:100B70001103892B8A2B8B2B99F00E94B1020091D3
:100B80000E0310910F0320911003309111036C1983
:100B90007D098E099F090617170728073907E0F115
:100BA0008091BC0083FDD9CF85EC8093BC000E946E
:100BB000B1026B017C0180910C03823009F445C0C5
:100BC00080910A038F3F61F180910A03803241F1E5
:100BD00080910A0325C080910E0390910F03A0918C
:100BE0001003B0911103892B8A2B8B2B09F48ACF28
:100BF0000E94B10200910E0310910F032091100387
:100C0000309111036C197D098E099F09061717078A
:100C10002807390708F076CF80910D030E94BA04A7
:100C2000109239031092380310921203DF91CF9182
:100C30001F910F91FF90EF90DF90CF9008959D91BD
:100C400091938F5F75CF85EEB0CF80910E03909119
:100C50000F03A0911003B0911103892B8A2B8B2BCA
:100C600009F4A9CF0E94B10200910E0310910F0365
:100C700020911003309111036C197D098E099F0991
:100C8000061717072807390708F095CFC5CFFC01CD
:100C900020812EBD9B012150310941F051810DB4BD
:100CA00007FEFDCF4EB55EBD4193F5CF6150710992
:100CB000860F971F0DB407FEFDCF2EB5FC012083D4
:100CC0000895E0913D03F0913E03808190913C03B3
:100CD000892B80830895E0913D03F0913E0390813C
:100CE00080913C0380958923808308958EBD000008
:100CF0000DB407FEFDCF8EB50895AF92BF92CF928F
:100D0000DF92EF92FF920F931F93CF93DF93CDB7B4
:100D1000DEB728970FB6F894DEBF0FBECDBF8C01AB
:100D20007B016A018091D0038333E1F45801A40E62
:100D3000B51EA016B10609F46FC00E946B0680EFC5
:100D40000E947606812F0E947606802F0E947606EA
:100D50000F5F1F4FF70181917F010E9476060E946D
:100D60006106E7CF5B01A40EB51E8433C1F40E9477
:100D70006B0619830A838D2D80688B83CC8264E097
:100D800070E0CE0101960E944706AE14BF0409F43C
:100D900041C0F70181917F010E947606F6CF0E9443
:100DA0006B060F3F110509F028F419820A8384E0CD
:100DB0008B830CC017FD17C019820A8333E0169588
:100DC00007953A95E1F7007E0C600B8386E0C81624
:100DD000D104A0F5F701DE011496EA15FB0599F0A0
:100DE00081918D93FACFC80126E0969587952A9533
:100DF000E1F7807E19830A830115104C10F4846199
:100E0000D7CF8C61D5CFB6016D5F7F4FCE010196F4
:100E10000E9447060E946106C60128960FB6F89404
:100E2000DEBF0FBECDBFDF91CF911F910F91FF901D
:100E3000EF90DF90CF90BF90AF90089563E070E0A7
:100E4000CE0101960E944706F70181917F010E9421
:100E50007606AE14BF04C1F7DDCFCF93DF931F92A8
:100E6000CDB7DEB7898341E050E0BE016F5F7F4FB1
:100E700090E080E00E947D060F90DF91CF91089571
:100E800090E02091D003233339F40C96982F990FDA
:100E9000990F990F80E008954896F8CFDA01E09114
:100EA0004003F0E0FE2FEE27E60FF71F90E0982FAB
:100EB0008827A901BD018E0F9F1F0C947D06CF933B
:100EC000DF9300D0CDB7DEB779836A8322E030E0CC
:100ED000AE014F5F5F4F60E170E00E944E070F90E0
:100EE0000F90DF91CF910895CF93DF9300D0CDB7CE
:100EF000DEB779836A8322E030E0AE014F5F5F4F57
:100F000064E070E00E944E070F900F90DF91CF9148
:100F10000895CF93DF931F92CDB7DEB720914003A2
:100F200030E0322F2227260F371F90E0982F882796
:100F3000498341E050E0BE016F5F7F4F820F931FF6
:100F40000E947D060F90DF91CF910895CF93DF939C
:100F50001F92CDB7DEB76983DC01ED91FC91028071
:100F6000F381E02D41E050E0BE016F5F7F4F0995B6
:100F70000F90DF91CF910895FC019485FB0184854A
:100F8000981303C081E0943008F080E00895CF9377
:100F9000DF931F92CDB7DEB76983DC01ED91FC9141
:100FA0000280F381E02D41E050E0BE016F5F7F4F92
:100FB00009950F90DF91CF9108950895FF920F93B7
:100FC0001F93CF93DF93EB01FC01178A168A2A81C6
:100FD000211109C02B81211106C02C81211103C0D0
:100FE0002D81222301F141155105E9F08A01FC010F
:100FF000F08C80E591E00E949301AE014E5F5F4F5F
:1010000024E030E06CE070E08F2D0E944E07B801C4
:101010008F2D0E945F0781E090E0DF91CF911F91BB
:101020000F91FF90089580E0F7CFFC0184859585AE
:101030000895FC018489958908952AEA31E0FC012C
:1010400031832083FB014089518962897389FC01C6
:1010500042835383648375830895DC01ED91FC9191
:10106000048CF58DE02D099490E080E0089561E016
:1010700085E00E94030261E084E00E94030260E0D8
:101080008EE00C94030261E083E00E94030260E0C2
:101090008FE00C940302EF92FF920F931F93CF9374
:1010A000DF9300D000D000D0CDB7DEB7DC01AB01BC
:1010B00018966D917C9119978D919C911197FC01D7
:1010C0002081318161157105B9F0D9015096ED91FA
:1010D000FC91099521E0019709F020E0822F2696E6
:1010E0000FB6F894DEBF0FBECDBFDF91CF911F9139
:1010F0000F91FF90EF900895F901E684F7842AEAB2
:1011000031E03A83298314960D911D912D913C91E4
:1011100017970B831C832D833E83BE016F5F7F4F28
:10112000F701D7CFFC019485992369F080819181E3
:10113000DC01ED91FC910688F789E02D099591E09D
:10114000811101C090E0892F0895DC011C961C924A
:101150001C978D919C91009739F0DC01ED91FC91E9
:101160000488F589E02D09940895FC017687658748
:101170000895DC01ED91FC9102A0F3A1E02D099509
:1011800091E089270895862F089581E086270895A4
:1011900021E0FC018485843008F020E0822F08954E
:1011A00008958F929F92AF92BF92EF92FF920F930A
:1011B0001F93CF93DF93CDB7DEB7A1970FB6F89407
:1011C000DEBF0FBECDBF7C01FA01CB0119A22230D8
:1011D00008F42AE08E010F5D1F4F822E912CB12C56
:1011E000A12CBF01A50194010E94FD32F901CA01A1
:1011F0006A3074F5605DD8016E938D01232B242B2A
:10120000252B79F790E080E0109789F0FD0101909F
:101210000020E9F73197AF014A1B5B0BD701ED9135
:10122000FC910280F381E02DB801C7010995A196D8
:101230000FB6F894DEBF0FBECDBFDF91CF911F91E7
:101240000F91FF90EF90BF90AF909F908F90089577
:10125000695CD1CFFC0101900020E9F73197AF0123
:10126000481B590BBC0180EB94E00C9468030C9470
:10127000712D8F929F92AF92BF92CF92DF92EF9299
:10128000FF920F931F93CF93DF937C01EB016C01CF
:1012900082E0C80ED11C4701E5E08E0E911C10E0E3
:1012A00000E0F60141916F0150E070E060E02AE05B
:1012B000CE010E94D1085C01E881F9810190F081A2
:1012C000E02D6EE2CE0109958A0D9B1D080F191FB6
:1012D000C814D90431F7F701458150E070E060E0AF
:1012E0002AE0CE010E94D108800F911FDF91CF919B
:1012F0001F910F91FF90EF90DF90CF90BF90AF9034
:101300009F908F9008950F931F93CF938C01C62FBA
:101310000E9460056C2F6460C8010E9460056C2FFC
:101320006B7FC8010E94600583EC90E00197F1F7A4
:10133000CF911F910F9108950F931F93CF93DF9338
:101340008C01D62FC42F607F642B0E94830980E11B
:10135000D89FB00111246C2BC801DF91CF911F9150
:101360000F910C948309CF93DF93CDB7DEB7289705
:101370000FB6F894DEBF0FBECDBF98E0ECE0F1E011
:10138000DE01119601900D929A95E1F79091B804C3
:10139000961708F46FEF262F30E0220F331F41E03D
:1013A00050E04C0F5D1F240F351FF9016081680F5D
:1013B000606840E080EB94E028960FB6F894DEBFBA
:1013C0000FBECDBFDF91CF910C949C0941E00E94EC
:1013D0009C0981E090E00895FB01808191810E9449
:1013E0009E2E21E0009709F420E02093AA03892B88
:1013F00061F061E085E00E94D50160E088E00E9434
:10140000B3098CEA91E00C942A0960E085E00E941F
:10141000D50160E088E00E94B30985EB91E0F3CF4D
:10142000FB01808191810E949E2E892B61F061E0F9
:1014300084E00E94D50160E088E00E94B3098FEB50
:1014400091E00C942A0960E084E00E94D50160E0FC
:1014500088E00E94B30988EC91E0F3CFAF92BF928D
:10146000CF92DF92EF92FF920F931F93CF93DF9370
:1014700000D000D0CDB7DEB78C016B017A0180912E
:10148000D0038333E9F45B016801C40ED51EC01696
:10149000D106A9F10E946B068FE00E947606812F8B
:1014A0000E947606802F0E9476060F5F1F4F80E015
:1014B0000E947606F50181935F010E946106E7CFE5
:1014C000843369F50E946B0619830A838F2D8F7709
:1014D0008B83EC8264E070E0CE0101960E944706A7
:1014E000A70170E060E0C6010E948E34E114F104AF
:1014F00021F0B701C6010E9447060E946106C7019C
:101500000F900F900F900F90DF91CF911F910F913F
:10151000FF90EF90DF90CF90BF90AF9008950E9422
:101520006B060F3F110509F030F419820A831B8204
:1015300063E070E0D1CF17FD0BC019820A8333E05E
:10154000169507953A95E1F7007E08600B83F0CF7A
:10155000C80126E0969587952A95E1F7807E198344
:101560000A830115104C18F480618B83E1CF8861E8
:10157000FCCFCF93DF931F92CDB7DEB7209140030E
:1015800030E0322F2227260F371F90E0982F882730
:1015900041E050E0BE016F5F7F4F820F931F0E94BA
:1015A0002E0A89810F90DF91CF910895CF93C82F94
:1015B000462F61E070E00E94890761E070E08C2FA7
:1015C0000E94B90A8111F9CFCF910895CF93C82F06
:1015D00080E591E00E94930168E070E08C2FCF914C
:1015E0000C94D60ACF93C82F80E591E00E94930116
:1015F00060E170E08C2FCF910C94D60ACF93DF93EB
:10160000EC01888D843020F40E94F20A84E0888FF7
:10161000DF91CF910895CF93C82F80E591E00E948C
:10162000930163E070E08C2FCF910C94B90ACF93B3
:10163000DF93EC018C858430D0F40E940B0B843155
:1016400089F0882379F0883169F021E08C3159F4F0
:10165000E881F9810084F185E02DCE01099521E032
:10166000892B09F420E0822FDF91CF91089580E04B
:10167000FBCFCF92DF92EF92FF92CF93DF93EC01FB
:101680008C85843068F40E94E60A0E9409036B018D
:101690007C018C850E940B0B811109C084E08C8732
:1016A000DF91CF91FF90EF90DF90CF90089561E0B0
:1016B00070E080E090E00E94D6020E940903AB0136
:1016C000BC014C195D096E097F098D859E85B0E0CE
:1016D000A0E0481759076A077B07D8F28C850E945B
:1016E000F20ADCCFCF93FC01C08D80E591E00E942F
:1016F000930160E270E08C2F0E94D60A62E070E0F5
:101700008C2F0E94B90A84FD16C062E070E08C2F15
:101710000E94B90A83FF0AC048E162E070E08C2FA2
:101720000E94890780E090E0CF91089580E591E0E4
:101730000E949301E3CF40E162E070E08C2F0E94B1
:10174000890781E0F0CFCF93DF931F92CDB7DEB74B
:1017500041E050E0BE016F5F7F4F90E080E00E946B
:101760002E0A89810F90DF91CF910895CF93DF9357
:10177000C4E1D0E00E94A30B882361F061E070E037
:1017800080E090E00E94D6022197A1F780E0DF91EF
:10179000CF91089581E0FBCF1F93CF93DF931F92EA
:1017A000CDB7DEB7182F80E591E00E949301812F1D
:1017B0000E94400727E0129FF0011124EC54FC4FD7
:1017C00022813381377041E050E0BE016F5F7F4F6F
:1017D000820F931F0E942E0A89810F90DF91CF9173
:1017E0001F910895FC01808D843040F4218D328D4D
:1017F000232B21F00E94CC0B90E008958FEF9FEFF8
:101800000895CF93DF93FC012485243028F08FEFD7
:101810009FEFDF91CF910895EC010190F081E02DD1
:101820000084F185E02D0995892B89F38C850E9430
:10183000CC0B90E0EECFDA01E0914003F0E0FE2F18
:10184000EE27E60FF71F90E0982F8827A901BD012A
:101850008E0F9F1F0C942E0A8F929F92AF92BF9271
:10186000CF92DF92EF92FF921F93CF93DF93CDB78A
:10187000DEB72C970FB6F894DEBF0FBECDBF209118
:10188000D00314E0222339F16B017C0180E591E063
:101890000E9493015E0127E0A20EB11C450110E0F9
:1018A00063E070E0812F0E94B90AF40181934F0137
:1018B000882349F11F5F143099F710E0F5018191F9
:1018C0005F018D31D9F08831C9F08A518230B0F092
:1018D0001F5F143099F7812F2C960FB6F894DEBF56
:1018E0000FBECDBFDF91CF911F91FF90EF90DF90A2
:1018F000CF90BF90AF909F908F90089560E170E07F
:10190000812F0E94D60AA12EB12C83EE93E001977D
:10191000F1F742E870E060E0812F0E9489074FEF05
:1019200062E070E0812F0E948907B601C114D104E2
:1019300091F4809100019091010101968115F0ECE4
:101940009F0708F45CC090930101809300016091AF
:10195000000170910101812F0E94740786E0E4E18B
:10196000F1E0DE01119601900D928A95E1F7F70101
:1019700083818F778C8384818D8385818E83A7017A
:101980004E5F5F4F24E030E06CE070E0812F0E94FA
:101990004E07B601812F0E945F0726E030E0AE01BE
:1019A0004F5F5F4F66E070E0812F0E944E0761E05D
:1019B00070E0812F0E94D60A27E02A9DC0012B9D4E
:1019C000900D11249C012C543C4F7901F901118296
:1019D000108222E030E0AE01455F5F4F68E270E0C8
:1019E000812F0E941B0C8B859C859827892798271F
:1019F000F701938382831682158214826CCF80E074
:101A000090ECA1CFCF92DF92EF92FF920F931F93B2
:101A1000CF93DF9300D000D000D0CDB7DEB78C01DC
:101A20006B017A01FC01808D843010F40E94F20A6F
:101A30008AEA91E09A838983F60182819381A48165
:101A4000B5818B839C83AD83BE83B701CE010196A4
:101A50000E942C0CF801808F8430A0F4F586E48677
:101A6000128E118E81E026960FB6F894DEBF0FBE5F
:101A7000CDBFDF91CF911F910F91FF90EF90DF903D
:101A8000CF90089580E0EFCFAF92BF92CF92DF92D8
:101A9000EF92FF920F931F93CF93DF9300D000D06C
:101AA00000D0CDB7DEB7082F6B0180E591E00E9432
:101AB00093019E012F5F3F4F7901590110E063E0D0
:101AC00070E0812F0E94B90AF50181935F0188239C
:101AD00041F11F5F143099F710E0F70181917F0108
:101AE0008D31D1F08831C1F08A518230A8F01F5F6A
:101AF000143099F7812F26960FB6F894DEBF0FBEEB
:101B0000CDBFDF91CF911F910F91FF90EF90DF90AC
:101B1000CF90BF90AF90089560E170E0812F0E9458
:101B2000D60AE12EF12C83EE93E00197F1F7402FD6
:101B300070E060E0812F0E9489074FEF62E070E063
:101B4000812F0E948907B601CD2889F48091000178
:101B50009091010101968115F0EC9F0798F1909307
:101B60000101809300016091000170910101812FBA
:101B70000E94740761E070E0812F0E94D60A27E07E
:101B80002E9DC0012F9D900D11249C012C543C4F83
:101B90007901F9011182108222E030E0AE014B5F41
:101BA0005F4F68E270E0812F0E941B0C8D819E8147
:101BB000982789279827F7019383828316821582B5
:101BC000148298CF80E090ECCACFCF92DF92EF9250
:101BD000FF921F93CF93DF93EC017B016A018C8509
:101BE000843048F40E940B0B882319F08C850E94E6
:101BF000E60A84E08C87F70182819381A481B58114
:101C00000097A105B10551F490E080E0DF91CF91FC
:101C10001F91FF90EF90DF90CF9008958F3F9F4FDF
:101C2000AF4FBF4F89F38091D003811103C084E08F
:101C30008C87EACF70E060E081E20E94440D182FAB
:101C40008C87843008F780E591E00E949301A7011A
:101C50004E5F5F4F24E030E06CE070E0812F0E9427
:101C60004E07B601812F0E945F0764E070E0812F6C
:101C70000E94D60A0E9409036B017C018C850E9498
:101C80000B0B873109F18C31F9F0882309F4BCCFB3
:101C90000E940903AB01BC014C195D096E097F0963
:101CA0008D859E85B0E0A0E084179507A607B7074D
:101CB00038F061E070E080E090E00E94D602DECF74
:101CC0008C850E94F20AB3CF81E090E09FCF0F9302
:101CD0001F93CF93DF93EC018B01888D843010F438
:101CE0000E94F20A8091D003811107C094E0988F7E
:101CF000DF91CF911F910F910895B80182E00E946A
:101D0000440D888F843030F41D870C871A8E198E0D
:101D100081E0EECF80E0ECCF7F928F929F92AF92E6
:101D2000BF92CF92DF92EF92FF920F931F93CF93C8
:101D3000DF9300D0CDB7DEB7782E8B014A01590171
:101D400022E030E0AE014F5F5F4F64E270E00E943E
:101D50001B0CE980FA80FE24EF24FE24E00EF11E25
:101D6000970137704091D003072D10E0433309F0FD
:101D700042C0085F1F4F102F0027110F110F110FC6
:101D8000C901800F911F4733C9F1A9014A0D5B1D9D
:101D90004130584098F160E078E06B01C21AD30AF4
:101DA000A601B4010E947D06A5014C195D09B4018C
:101DB0006C0D7D1DC8010E947D06EA0CFB1CF9829A
:101DC000EA8222E030E0AE014F5F5F4F64E270E0F4
:101DD000872D0E944E070F900F90DF91CF911F919A
:101DE0000F91FF90EF90DF90CF90BF90AF909F90BA
:101DF0008F907F900895005F1F4FBDCFA501B40164
:101E0000DACFEF92FF921F93CF93DF9300D0CDB73D
:101E1000DEB7182F22E030E0AE014F5F5F4F60E287
:101E200070E00E941B0CE980FA80FE24EF24FE245F
:101E300022E030E0AE014F5F5F4F60E270E0812F43
:101E40000E941B0C89819A81982789279827E81678
:101E5000F90689F487E0189FF0011124EC54FC4F37
:101E6000F582E482C7010F900F90DF91CF911F910F
:101E7000FF90EF9008957C01DBCF1F93CF93DF930A
:101E8000182F80E591E00E949301812F0E94010F9D
:101E9000EC0163E070E0812F0E94B90A873121F0E4
:101EA0008C3111F0D0E0C0E0CE01DF91CF911F91D5
:101EB0000895CF93DF93EC018C85843060F40E9409
:101EC0000B0B873111F08C3131F48C850E943D0F62
:101ED0008115984088F3DF91CF910895FC018485A6
:101EE000843010F40C943D0F90E080E008959F92B0
:101EF000AF92BF92CF92DF92EF92FF920F931F9318
:101F0000CF93DF938C015B01942EE52EFC01C688F4
:101F1000D788F08C80E591E00E9493018F2D0E947C
:101F2000010FC92DDE2D8C179D0708F4EC019E01D1
:101F3000A501B6018F2D0E948C0EF8018689978924
:101F40008C0F9D1F978B868BCE01DF91CF911F91B8
:101F50000F91FF90EF90DF90CF90BF90AF909F9048
:101F600008958F929F92AF92BF92CF92DF92EF929D
:101F7000FF920F931F93CF936C015B018A01FC01C9
:101F8000C485C430F0F57A014130584018F0E12C96
:101F900088E0F82E80E591E00E9493018C2F0E944A
:101FA000010F4C0163E070E08C2F0E94B90A873169
:101FB00011F08C3149F58E149F0460F380E591E0B7
:101FC0000E9493019701A50170E060E08C2F0E94B0
:101FD0008C0E60E270E08C2F0E94D60A62E070E006
:101FE0008C2F0E94B90A84FD17C063E070E08C2F2B
:101FF0000E94B90A81110BC081E090E0F601938341
:10200000828310E000E010C0F12CE12CD7CF80E5F6
:1020100091E00E949301E2CF40E162E070E08C2FFA
:102020000E948907EF2841F3C801CF911F910F91BA
:10203000FF90EF90DF90CF90BF90AF909F908F90E8
:102040000895FF920F931F93CF93DF9300D0CDB7E6
:10205000DEB7F82E22E030E0AE014F5F5F4F66E260
:1020600070E00E941B0C09811A811027012710279C
:1020700022E030E0AE014F5F5F4F66E270E08F2DEF
:102080000E941B0C89819A81982789279827081715
:10209000190749F4C8010F900F90DF91CF911F915C
:1020A0000F91FF9008958C01E3CF1F93CF93DF939F
:1020B000182F87E0189FE0011124CC54DC4F888151
:1020C0009981009761F480E591E00E949301812F4E
:1020D0000E9421102E81821B910999838883DF91B0
:1020E000CF911F910895FC018485843010F40C94E5
:1020F000551090E080E008954F925F927F928F920A
:102100009F92AF92BF92CF92DF92EF92FF920F9386
:102110001F93CF93DF9300D0CDB7DEB7782E6B013E
:102120004A01A82EB12C27E0829FC0011124FC0196
:10213000EC54FC4F7F010081118180E591E00E9409
:1021400093010815190554F4872D0E942110F701F9
:1021500026818C01021B11091183008301151105D1
:1021600029F563E070E0872D0E94B90A843159F0A7
:10217000882349F001E010E08C3111F410E000E018
:10218000119501951109C8010F900F90DF91CF9122
:102190001F910F91FF90EF90DF90CF90BF90AF9085
:1021A0009F908F907F905F904F900895801691063A
:1021B0000CF4840187E08A9DF0018B9DF00D1124C1
:1021C000EC54FC4FE280F380C114D10451F127019B
:1021D000F7E05F22872D0E944007840D951D209116
:1021E000D003273309F453C09801240D351D213045
:1021F000384008F44CC020E038E0490184189508C4
:10220000A401B6010E942E0A2601480C591C68013F
:10221000C818D908872D0E944007A601B2010E9464
:102220002E0AE00EF11E87E08A9DF0018B9DF00DD5
:102230001124EC54FC4FF382E28220813181201B77
:10224000310B318320838681800F912F911D8A3F2E
:10225000910510F4232BF1F487E08A9DF0018B9D0A
:10226000F00D1124EC54FC4F1682F982EA8222E030
:1022700030E0AE014F5F5F4F68E270E0872D0E9453
:102280004E0760E470E0872D0E94D60A7CCFA8013B
:10229000B601C5CF868377CFCF93DF93FC01218D25
:1022A000328D2115310529F48FEF9FEFDF91CF910A
:1022B0000895EC01808D4217530708F0A9010E9490
:1022C0007C101816190684F7298D3A8D281B390BB6
:1022D0003A8F298FEBCF0F931F93CF93DF931F92EA
:1022E000CDB7DEB7FC01218D328D232B41F48FEF6A
:1022F0009FEF0F90DF91CF911F910F9108958C0167
:1023000041E050E0BE016F5F7F4FFC01808D0E9475
:102310007C10181619065CF7F801818D928D0197D3
:10232000928F818F898190E0E4CFCF93DF931F92CA
:10233000CDB7DEB741E050E0BE016F5F7F4FFC01DB
:1023400084850E947C101816190634F4898190E067
:102350000F90DF91CF9108958FEF9FEFF9CFFC01A0
:102360008485843010F40C947C1090E080E0089513
:102370000F931F93CF93DF9300D0CDB7DEB7FC014F
:1023800024852430E0F48C0180E591E00E949301E3
:1023900022E030E0AE014F5F5F4F60E170E0F80196
:1023A00084850E941B0C89819A8198278927982708
:1023B0000F900F90DF91CF911F910F91089590E0B2
:1023C00080E0F6CF0F931F93CF93DF9300D0CDB76C
:1023D000DEB7FC0124852430E0F48C0180E591E037
:1023E0000E94930122E030E0AE014F5F5F4F64E056
:1023F00070E0F80184850E941B0C89819A819827DE
:10240000892798270F900F90DF91CF911F910F91FF
:10241000089590E080E0F6CFDC018AEA91E08D93A8
:102420009D9384E0FB0101900D928A95E1F7089558
:10243000EF92FF920F931F93CF93DF9300D000D0C2
:10244000CDB7DEB78C017B01FB0184858430A8F019
:102450008AEA91E0F80191838083128213821482C8
:102460001582C8010F900F900F900F90DF91CF91C0
:102470001F910F91FF90EF90089580E591E00E94E9
:10248000930124E030E0AE014F5F5F4F6CE070E0FD
:10249000F70184850E941B0CBE016F5F7F4FC8014E
:1024A0000E940C12DECF0F931F93CF93DF93CDB713
:1024B000DEB728970FB6F894DEBF0FBECDBF8C01F4
:1024C000D80159964D915C915A974115510551F09B
:1024D000ED91FC91048CF58DE02D70E060E0C80179
:1024E0000995EECFF801808D0E945510892BB1F12E
:1024F00048E050E0BE016F5F7F4FD80158968C9145
:102500000E947C1018161906F4F4D801509684E045
:10251000FE01319601900D928A95E1F78D8190E050
:10252000982F88272E81820F911DF801958B848B1F
:102530008F81282F30E0322F22278885820F932F1A
:10254000911D928F818F28960FB6F894DEBF0FBE33
:10255000CDBFDF91CF911F910F91089590E080E062
:10256000F2CF4F925F926F927F928F929F92AF9233
:10257000BF92CF92DF92EF92FF920F931F93CF9370
:10258000DF93CDB7DEB763970FB6F894DEBF0FBE0B
:10259000CDBF7C016B013A01FB0120E090E080E0BF
:1025A0006AE03191332309F461C040ED430F4A30B2
:1025B00008F04DC0689FA001699F500D1124CA0109
:1025C000C097830F911D37FD9A958F3F910549F371
:1025D00040F3F70142815381648175818091A604A3
:1025E0009091A704A091A804B091A9044817590795
:1025F0006A077B0709F40DC28701085F1F4F0E941D
:1026000009036F7077277C5FC8010E94670E8130D5
:1026100009F004C28AEA91E09A838983F7018281F2
:102620009381A481B5818B839C83AD83BE8345E375
:1026300050E0BE016F5F7F4FC8010E94DE07892B0B
:10264000A9F5D12CC12CC8010E94FE0A17C03E3248
:1026500009F0BFCF233009F4BCCFD301A20FB11DC5
:1026600012968C932F5F90E080E09BCF233009F08F
:10267000B0CFF3018583CC24C394D12CC6016396DB
:102680000FB6F894DEBF0FBECDBFDF91CF911F9183
:102690000F91FF90EF90DF90CF90BF90AF909F9001
:1026A0008F907F906F905F904F9008950E940903E4
:1026B000F7017783668342E050E0B7016A5F7F4F9E
:1026C000C8010E94770F81E090E09A83898342E0FD
:1026D00050E0BE016F5F7F4FC8010E94770F80E01E
:1026E00091E09A83898342E050E0BE016F5F7F4FA3
:1026F000C8010E94770F1A82198242E050E0BE01A1
:102700006F5F7F4FC8010E94770F42E050E0BE012B
:102710006F5F7F4FC8010E94770F42E050E0BE011B
:102720006F5F7F4FC8010E94770F5601F6018081CD
:10273000882301F16501F60181912F01882311F0B1
:102740008E32B1F446018A189B081814190474F4E7
:102750008D8641E050E0BE01635F7F4FC8010E945B
:10276000770FA401B501C8010E94770F5201DECF97
:102770006201E1CF1D8641E050E0BE01635F7F4F03
:10278000C8010E94770FC12CDD24D394DA82C9825C
:1027900042E050E0BE016F5F7F4FC8010E94770F9B
:1027A000DA82C98242E050E0BE016F5F7F4FC8010C
:1027B0000E94770FC8010E94720B892B09F441CF48
:1027C000F3E0AF2EB12C230122E0420E511CD4C005
:1027D000F7014281538164817581808D918DA28D35
:1027E000B38D481759076A077B0709F008C1848D24
:1027F000958DC59709F003C181A192A15DEFC52E0A
:10280000DD24DA940C970CF4ADC04CE050E0BE012E
:102810006F5F7F4FC8010E944C118B819C8198276C
:10282000892798279A8B898BF701468157812981BF
:102830003A814217530709F0E7C097FFE5C08F7050
:1028400092703BEFC32EDD24DA94892B09F08AC005
:102850006F8078847624672476242AEFC22EDD24C4
:10286000DA946114710409F47DC0D12CC12C8D81DE
:102870009E81982789279827C816D906F8F441E041
:1028800050E0BE01635F7F4FC8010E944C114D852F
:10289000442331F050E070E060E0C8010E944C1128
:1028A0008D858111ECCF44E050E070E060E0C8011C
:1028B0000E944C11FFEFCF1ADF0AD9CF912C812C47
:1028C00041E050E0BE016D5E7F4FC8010E944C1197
:1028D0004B89842F807C09F06CC0442331F050E098
:1028E00070E060E0C8010E944C118B898111E8CF33
:1028F00042E050E0BE01615F7F4FC8010E944C1171
:1029000042E050E0BE01635F7F4FC8010E944C115E
:1029100044E050E070E060E0C8010E944C1142E0E9
:1029200050E0BE016F5E7F4FC8010E944C118F8541
:10293000988949895A898115914009F043C0CD840D
:10294000DE84DC24CD24DC2481E0C816D104D1F55A
:102950004115544009F04AC044E050E0B201C801BA
:102960000E944C1121E0A21AB10809F46CCEFFEFCD
:10297000CF16DF0609F067CE0E9409033B014C0128
:10298000C8010E945312181619060CF421CF0E9498
:10299000090366197709880999096938734181051E
:1029A000910548F562E370E080E090E00E94D60275
:1029B000E7CF41E050E070E060E0C8010E944C11B8
:1029C0001B8A93CF54274527542770E060E0C80145
:1029D0000E944C11FFEF8F1A9F0A6814790409F0C6
:1029E0006FCF96EFC92EDD24DA94BCCFE7EFCE2E61
:1029F000DD24DA94B7CFCC24CA94DC2CB3CF6EEFAD
:102A0000C62EDD24DA94AECF4CEFC42EDD24DA944A
:102A1000A9CF8EEFC82EDD24DA9430CED12CC12C74
:102A20002DCECF92DF92EF92FF920F931F93CF9311
:102A3000DF93CDB7DEB7AF970FB6F894DEBF0FBE0A
:102A4000CDBF7C016A010AEA11E01A8309831C8662
:102A50001B8688EE93E0A0E0B0E08D879E87AF876D
:102A6000B88B8EE191E09A878987188F0F8B198E2A
:102A70001A8E1B8E1C8E84E089A31BA70AA71CA696
:102A80001DA61EA61FA680919A0490919B04A0915A
:102A90009C04B0919D048EA39FA3A8A7B9A78B8384
:102AA0009C83AD83BE8318861F82AE01465D5F4F57
:102AB000CE0101960E94B11281309105B1F4D70187
:102AC000ED91FC910488F589E02D1DA30CA38CA544
:102AD0009DA5AEA5BFA58EA39FA3A8A7B9A7A60134
:102AE000BE016C5D7F4FC7010995AF960FB6F89494
:102AF000DEBF0FBECDBFDF91CF911F910F91FF9031
:102B0000EF90DF90CF900895CF92DF92EF92FF92F7
:102B10000F931F93CF93DF93CDB7DEB7AF970FB669
:102B2000F894DEBF0FBECDBF8C016B017A018AEA3B
:102B300091E09A8389831B821C821D821E821C86DF
:102B40001B8648EE53E060E070E04D875E876F873C
:102B5000788B2EE131E03A872987988F8F8B198EF9
:102B60001A8E1B8E1C8E24E029A39BA78AA71CA665
:102B70001DA61EA61FA6D8011C968C91843060F459
:102B80000E940B0B882321F0F80184850E94E60A3D
:102B900084E0D8011C968C9380919A0490919B04B8
:102BA000A0919C04B0919D048EA39FA3A8A7B9A750
:102BB0008B839C83AD83BE8318861F82AE01465DE6
:102BC0005F4FB601CE0101960E94B1120097C1F08D
:102BD000D801ED91FC910684F785E02D8AEA91E019
:102BE0009DA38CA38CA59DA5AEA5BFA58EA39FA3D9
:102BF000A8A7B9A7A701BE016C5D7F4FC8010995C1
:102C0000AF960FB6F894DEBF0FBECDBFDF91CF9168
:102C10001F910F91FF90EF90DF90CF9008957F92DA
:102C20008F929F92AF92BF92CF92DF92EF92FF92DC
:102C30000F931F93CF93DF93CDB7DEB7A6970FB651
:102C4000F894DEBF0FBECDBF8C01762E942E852E5C
:102C500020E2A22ECE0101967C01DC01EA2D1D921C
:102C6000EA95E9F76801F3E4CF0ED11C8AEA91E016
:102C70009AA389A38FEF8BA38CA38DA38EA343E488
:102C800050E0BE016F5D7F4FC6010E94DE070196D6
:102C900009F4BFC081E089838A8386E0B82EBB82B5
:102CA0001C82D80114966D917D918D919C911797FE
:102CB0000E9443336D837E838F83988789869A86AB
:102CC00080E890E09C878B874CE150E0B701C6011B
:102CD0000E94770FFE0137968AE1DF011D928A95E7
:102CE000E9F74801B8E08B0E911CF401D70101907F
:102CF0000D92BA94E1F740E150E0B701C6010E949D
:102D0000770FF7011192AA94E9F796E0A92EB12C5A
:102D100040E250E0B701C6010E94770FF1E0AF1A20
:102D2000B108B1F783E6898392E89A8393E59B83A0
:102D30008C8385E38D8381E08E837F829DE39887FA
:102D400097E099878A8786E0F401DE011B9601905F
:102D50000D928A95E1F78CE0898B8A8B62ED71E0A8
:102D6000CE0143960E949E34D8011B966C91CE01F1
:102D700049960E949601F8016485CE014B960E9407
:102D80009601D8011D966C91CE014D960E94960138
:102D90004EE150E0B701C6010E94770FB3E07B120D
:102DA0001EC082E3898384E08A83F80196859B8331
:102DB00097859C8390899D8391899E8396E39F83C9
:102DC0008887828D8987838D8A87848D8B87858D7F
:102DD0008C874CE050E0B701C6010E94770F87E373
:102DE000898386E08A8391E09B8393E09C838D8333
:102DF0008FE08E838AE38F838BE388878FEF8987C9
:102E000049E050E0B701C6010E94770FC6010E9459
:102E1000720BA6960FB6F894DEBF0FBECDBFDF9142
:102E2000CF911F910F91FF90EF90DF90CF90BF90C7
:102E3000AF909F908F907F9008950F931F93CF93A3
:102E4000DF93EC01FB0101900020E9F78F01061BE5
:102E5000170B8A819B81A801480F591F2C813D8146
:102E60002417350768F028813981A801820F931F44
:102E70000E9485344A815B81400F511F5B834A83E6
:102E8000DF91CF911F910F9108956115710599F40C
:102E9000DC01ED91FC91119712962D913C911397C5
:102EA000A9014F5F5F4F13965C934E931297E20F09
:102EB000F31F108208950C941D170F931F93CF9347
:102EC000DF93EC0188819981009759F02A813B8139
:102ED0002617370730F081E0DF91CF911F910F91D6
:102EE00008958B016F5F7F4F0E94BB33009759F0AD
:102EF000998388831B830A832C813D81232B59F777
:102F0000FC011082E8CF80E0E7CF85ED8093BC0024
:102F100080910E0390910F03A0911003B0911103C3
:102F20000796A11DB11D23E0B695A79597958795A6
:102F30002A95D1F72091BC0024FD03C010920C0308
:102F4000089540910E0350910F036091100370910A
:102F50001103452B462B472B69F30097A105B105BB
:102F600041F02AE22A95F1F700C00197A109B109C1
:102F7000E1CF80910D030C94BA043F924F925F927F
:102F80006F927F928F929F92AF92BF92CF92DF9279
:102F9000EF92FF920F931F93CF93DF93CDB7DEB7DE
:102FA000EA970FB6F894DEBF0FBECDBF7C012A01B1
:102FB0003B0169010E9409034B015C0187010D5B24
:102FC0001F4FC8010E945312181619069CF00E9448
:102FD0000903681979098A099B0946165706680684
:102FE000790608F466C162E370E080E090E00E9438
:102FF000D602E7CF42E250E0BE016F5F7F4FC801CB
:103000000E944C1189818230D1F0312C832DEA96B7
:103010000FB6F894DEBF0FBECDBFDF91CF911F91E9
:103020000F91FF90EF90DF90CF90BF90AF909F9067
:103030008F907F906F905F904F903F900895F80130
:10304000848995898334910501F76D817E818F8113
:1030500098850E9443334B015C01F6018082918286
:10306000A282B38246E050E0B701685F7F4FCE0195
:103070004D960E947834892B41F6F7018081918129
:10308000A281B38188169906AA06BB0608F4BDCFB3
:1030900084819581A681B78188159905AA05BB050C
:1030A00008F4B3CF89899A89AB89BC8986879787C9
:1030B000A08BB18B4EEC50E070E060E0C8010E9444
:1030C0004C11312CC701829698AB8FA7F701B696A9
:1030D000FAABE9AB08969CAB8BAB67019AE1C90EE2
:1030E000D11CBD96FEABEDABC701429698AF8FAB3E
:1030F000FD97FAAFE9AF4701FEE18F0E911CF80191
:10310000818D928D181619060CF080CFC8010E948F
:103110006B118333910509F4B2C014F58130910528
:1031200009F464C044F4892B51F3C8010E946B1167
:10313000AC01552775C08330910509F462C006972C
:10314000A1F7C8010E946B11B82E44E050E0B40111
:10315000C8010E944C11EB2DE450FF0BAF0160C081
:103160008A33910509F45FC084F585339105B1F187
:10317000C697D9F6C8010E946B115C01B601CE0159
:1031800089960E940C128BA59CA5ADA5BEA5892B86
:103190008A2B8B2BB1F0EDA9FEA940805180628073
:1031A0007380B601CE0183960E940C128DA19EA160
:1031B000AFA1B8A5A501481659066A067B0609F015
:1031C000B8CF44E050E0B60118C08B33910509F444
:1031D00040C08F3F910509F492CFA7CFC8010E944C
:1031E0006B11C8010E946B11382E89CFC8010E9453
:1031F0006B1144E050E06FA978ADC8010E944C11FA
:103200007ECFC8010E946B11B82E44E050E069AD3A
:103210007AADC8010E944C118B2D8450990BAC01E2
:1032200070E060E0EACFC8010E946B1144E050E01A
:1032300069A97AA9C8010E944C11F70166A177A17A
:1032400080A591A50E94433366A377A380A791A789
:1032500056CFC8010E946B1144E050E06BA97CA9D5
:10326000C8010E944C11F70162A573A584A595A51C
:103270000E94433362A773A784A795A740CFC801D4
:103280000E946B1144E050E06FA578A9C8010E942C
:103290004C11F70162A173A184A195A10E9443334F
:1032A00062A373A384A395A366A777A780AB91AB12
:1032B00026CF33243A94AACE0F931F93CF93DF9354
:1032C000CDB7DEB728970FB6F894DEBF0FBECDBFDF
:1032D0008C01CB014AE0BE016F5F7F4F0E94EC2E54
:1032E000BE016F5F7F4FC8010E941D1728960FB661
:1032F000F894DEBF0FBECDBFDF91CF911F910F912C
:1033000008953F924F925F926F927F928F929F9219
:10331000AF92BF92CF92DF92EF92FF920F931F93E3
:10332000CF93DF93CDB7DEB7A1970FB6F894DEBF8A
:103330000FBECDBF5C010DB71EB719A308A360E097
:1033400070E0CB010E94D602D50191968D919C919F
:103350009297912C029709F498C090968C9190972F
:103360008F5F90968C9390975E962D913C91232B36
:1033700019F09924939482C08330D8F7F50182859F
:1033800093850E949208882309F440C38E010F5F41
:103390001F4F3801D5011A96ED91FC9180819181E2
:1033A000DC01ED91FC910084F185E02D0995181662
:1033B00019060CF02BC3D5011A96ED91FC9145E04E
:1033C00050E0BE01695E7F4F808191810E941803A9
:1033D000009701F3059709F04AC0888D998D9827C9
:1033E00089279827998F888FEA8CFB8CFE24EF24FD
:1033F000FE24FB8EEA8E892BD1F18F8981116AC060
:103400000E940903F501608B718B828B938B21A144
:1034100032A14A8D5B8D232B09F057C0288D398D41
:103420002130310509F051C049305105E1F0483CE7
:10343000510519F044305105D1F4D50158966D93DA
:103440007D938D939C935B97E1E0F0E09296FC93E3
:10345000EE939197C5010E94ED2260E070E0CB01F0
:103460000E94D60297CF83E090E092A381A3D5017A
:103470001A968D919C910E94A508912CD501909649
:103480008C919097815090968C93892DE8A1F9A109
:103490000FB6F894FEBF0FBEEDBFA1960FB6F8941D
:1034A000DEBF0FBECDBFDF91CF911F910F91FF9077
:1034B000EF90DF90CF90BF90AF909F908F907F90D4
:1034C0006F905F904F903F9008954530510509F0FF
:1034D00061CFCDCFF50182859385F1E0EF16FF0630
:1034E00040F0D50192961C921E9291970E94A508D9
:1034F00051CF8DB69EB697012F5F3F4FEDB7FEB708
:10350000E21BF30B0FB6F894FEBF0FBEEDBF0DB775
:103510001EB70F5F1F4FA701B801DC018D919C9171
:103520000E9418038E159F0509F05FC0EA8DFB8D80
:10353000E00FF11F10820E940903F501608B718B6F
:10354000828B938B8F89843109F4ABC0E8F48F3080
:1035500009F4A7C0813109F43CC2863009F04EC29B
:10356000488D598DD12CC12CF12CE12C08EC10E0A8
:1035700030E020E060E0C5010E94F91D0FB6F8942C
:103580009EBE0FBE8DBE06CF8932C9F08733B1F320
:103590008D3109F033C2D50181A192A1892B01F7A8
:1035A000E1E0F0E09296FC93EE939197C5010E94C2
:1035B000ED2260E070E0CB010E94D602D1CF86857B
:1035C0009785892B39F480E490E00E94D52CF50191
:1035D00097878687EA8CFB8CE00EF11E1A8309839D
:1035E000FC82EB820E151F0530F00FB6F8949EBEDC
:1035F0000FBE8DBE3CCF40E450E0B801D5011E9611
:103600008D919C910E94A534D5011E96ED91FC915F
:1036100017AEC3010E94CB22FC018081918100E59D
:1036200010E08E159F0560F489819A810097A9F1B9
:103630002B813C818217930780F50E94BC2E8B0161
:10364000D5011A968D919C910E94A508D5011A96D4
:10365000ED91FC911B971E968D919C911F979187E0
:1036600080871387028792961C921E9291970E94E0
:103670000903DC01CB0188589341A109B109F50187
:10368000848B958BA68BB78B808B918BA28BB38B06
:10369000808F918FA28FB38F71CF60E070E0CB01EC
:1036A000CECF888D998DD5015F969C938E935E9732
:1036B0004A8C5B8C6801C40CD51C1D8F0C8FDF8E6F
:1036C000CE8E0C151D0508F013C1F801E080F180C5
:1036D000CE014C960E94CB22DC018D919C918C15E1
:1036E0009D0508F005C18C8D9D8DFC012081213444
:1036F00059F401960E949E2E4EE0342E380E069705
:1037000044F033243A9405C0CE014C960E94DE2248
:10371000382EF6E7EF16F2E7FF0609F406C138F592
:1037200031E6E31632E7F30609F4E6C044E6E416B0
:1037300042E7F40609F478C050E7E5165DE6F506C1
:1037400009F039C18C8D9D8D8C159D0508F0D0C078
:10375000FC0120812134A9F501960E949E2E3EE0B5
:10376000F32EF80E069794F1FF24FA942FC084E606
:10377000E81687E7F80609F4A2C096E7E91697E786
:10378000F90609F4EAC0A1E6EA16A7E7FA0609F085
:1037900012C1CE014C960E94CB22DC018D919C91EE
:1037A0008C159D0508F0A4C061E0832D0E940302E2
:1037B000CE014C960E94DE22BC01832D0E943F0266
:1037C00097C0CE014C960E94DE22F82ECE014C9678
:1037D0000E94CB220C8D1D8D69ED71E0C8010E9405
:1037E000953460E0892B79F06CED71E0C8010E949E
:1037F0009534892B39F060EE71E0C8010E94953450
:10380000892B49F461E08F2D0E940302CE014C9672
:103810000E94CB2297CF64EE71E0C8010E949534DC
:10382000892BA1F762E0EFCF7A8A698A1C8A1B8A0A
:1038300000E110E01E8B0D8B67EE71E0CE0141962A
:103840000E941D17032D10E0B801CE0141960E9481
:103850005C19F801E85CFD4F8491F801EC5DFD4FC7
:10386000F490005F1D4FF801049160E070E00023C8
:1038700089F081110E94AC01E02FF0E0EE0FFF1FF4
:10388000EA5FFD4FA591B491EC91FE2261E070E0FA
:1038900009F460E0CE0141960E945C190B891C89F5
:1038A0000150110929893A89D12CC12CF12CE12C24
:1038B00050E040E064E1C5010E94F91D19C0CE014D
:1038C0004C960E94CB22DC018D919C918C159D051C
:1038D00078F461E0832D0E940302CE014C960E9491
:1038E000DE2261E0892B09F460E0832D0E94D5017E
:1038F000F501178E168E42CE7A8A698A1C8A1B8A37
:10390000E0E1F0E0FE8BED8B6AEE71E0CE014196D6
:103910000E941D17632D70E0CE0141960E945C1934
:10392000832D0E949C02BC01B5CFE32DF0E0FA8309
:10393000E983BFE1B315E0F2EE0FFF1FE45BFD4F3B
:10394000259134912115310599F2E1E022393E07A4
:1039500079F2C301F9010995CBCFCE014C960E94B3
:10396000CB228C8D9D8D9C01201B310B421A530A5A
:103970009A8389835C824B825E824D82E32DF0E0E4
:10398000FA8BE98B0FE1031508F4B2CFEE0FFF1F9E
:10399000E457FD4F259134912115310509F4A8CF45
:1039A00011E02139310709F4A3CFB301CE014196CB
:1039B000F90109959DCFD5015E964D915C91D12C71
:1039C000C12CF12CE12C02E010E030E020E060E0BE
:1039D00072CF8A8D9B8D800F911F1A8309839C83E0
:1039E0008B830817190708F0C9CDC3010E94CB22A9
:1039F000D5015F961C921E925E97C0CDF50112A272
:103A000011A2828593850E94A508B8CD0E94090362
:103A10002B013C01F501828593850E949208D50116
:103A200091962D913C912130310509F05EC0F50150
:103A3000811109C0408E518E628E738E12A211A226
:103A40008285938518CD80899189A289B389930154
:103A50008201081B190B2A0B3B0BD901C8018931C4
:103A600016EF9107A105B10548F7893C9F4AA105CA
:103A7000B10590F484899589A689B789930182015B
:103A8000081B190B2A0B3B0BD901C801893C9F4A23
:103A9000A105B10508F46DCCF501808D918DA28D45
:103AA000B38D93018201081B190B2A0B3B0BD90123
:103AB000C80181379741A105B10508F45ACCD12C32
:103AC000C12CF12CE12C10E000E030E020E050E0CF
:103AD00040E066E0C5010E94F91DD50158964D925F
:103AE0005D926D927C925B9744CC232B09F041CC84
:103AF000F501408D518D628D738D93018201041B00
:103B0000150B260B370BB901A801882381F041372B
:103B100057416105710508F42CCC828593850E947C
:103B2000A508D50192961C921E929197A6CC493871
:103B300053416105710508F41CCC828593850E9470
:103B4000A508D5011A960D911C91F801628573851F
:103B5000C8010E944B08D8011C968C931C978111B8
:103B60000DC01A968D919C918035910599F460E96C
:103B70007FE1C8010E944B08F8018487F801948412
:103B8000911014C0D50158964D925D926D927C9221
:103B90005B9774CC80399F4189F760E570E0C8017C
:103BA0000E944B08D8011C968C93E8CF81E090E0EE
:103BB000F501958F848F24853585F90101900020CA
:103BC000E9F731978F01021B130BD12CC12CF12C7B
:103BD000E12C41E050E06DE1C5010E94F91DF501C5
:103BE00084899589A689B789808F918FA28FB38F99
:103BF00045CC2F923F924F925F926F927F928F921D
:103C00009F92AF92BF92CF92DF92EF92FF920F936B
:103C10001F93CF93DF93CDB7DEB7C854D1090FB64A
:103C2000F894DEBF0FBECDBF4C0168AF5AAF49AFAD
:103C300027963FAF2EAF279721961FAF0EAF219744
:103C40002996FFAEEEAE29972396DFAECEAE239730
:103C5000DC011A968D919C910E949208882309F4A8
:103C6000BBC1B8ADBB2351F0B63041F0BD3131F02E
:103C7000F40181A192A1019709F0AEC188AD8F50E6
:103C80008630A0F5D40154964D915D916D917C9153
:103C900057975096CD90DD90ED90FC905397C416B9
:103CA000D506E606F70610F46A017B01B2E4CB0EF6
:103CB000D11CE11CF11C0E940903A7019601261BDF
:103CC000370B480B590BDA01C901B7FDAAC0C40173
:103CD0000E9481190E940903A7019601261B370B38
:103CE000480B590BDA01C901B7FFF1CFF40180810C
:103CF0009181019709F0B7C082E090E091838083C1
:103D000022813381448155816681778180859185C7
:103D1000A0E0FE017A960E94A93309F477C1FBABBB
:103D2000EAAB1DAA1CAA88E190E09FAB8EAB67EDC1
:103D300071E0CE01C2960E941D17D40112964C90DC
:103D4000129713965C90139714966C90149715968F
:103D50007C9015971696BC91BBAFF401F781FCAF30
:103D6000D40118962C90189719963C90198E9201B0
:103D7000A3016BAD7F2FC101A0E00E94A93309F41C
:103D800059C0FE0179962596FFAFEEAF259727E142
:103D900030E03EAF2DAF8AE0A82EB12CC12CD12C43
:103DA000E12CF12C00E010E09201A3016BAD7CADA1
:103DB000C1010E944A33F901E151FE4F80812596ED
:103DC000AEADBFAD25978E932596BFAFAEAF25970D
:103DD000EDADFEAD3197FEAFEDAF9AE0A92EB12C5F
:103DE000C12CD12CE12CF12C00E010E09201A301B8
:103DF0006BAD7CADC1010E944C3329013A016BAF20
:103E00007CAF1C01A0E00E94A93321F04DAD5EAD56
:103E1000452B09F66DAD7EAD6C0F7D1F6E5F7F4F3C
:103E20000EC0D40190968C91811160CFC4010E9484
:103E300081195CCF80E3888FBE01685E7F4FCE0121
:103E4000C2960E9445170CA91DA9015011092AA963
:103E50003BA9D12CC12CF12CE12C50E040E065E1D4
:103E6000C4010E94F91D29AD3AAD232BB9F4D40148
:103E70005E960D90BC91A02DBAAFA9AFAB2B71F49B
:103E8000F401848D958D019609F4D5C0958F848FAA
:103E9000F401048CF58DE02DFAAFE9AF27962EAD35
:103EA0003FAD279721960EAD1FAD21970B5F1F4F9A
:103EB000232B11F405E010E029964EAD5FAD299754
:103EC00090E080E0452B21F023968EAD9FAD2397A7
:103ED000080F191F58AD598389AD9AAD98278927C6
:103EE00098279B838A8321968EAD9FAD2197239639
:103EF000AEADBFAD23978A0F9B1F982789279827C0
:103F00009D838C83D4011A96ED91FC9180819181DF
:103F1000DC01ED91FC910280F381E02D45E050E061
:103F2000BE016F5F7F4F09957C0160E070E0CB01BF
:103F30000E94D602B8ADBB2309F444C02196EEAD71
:103F4000FFAD2197EF2BE1F0D4011A96ED91FC9192
:103F500080819181DC01ED91FC910280F381E02D63
:103F600021964EAD5FAD219727966EAD7FAD279719
:103F70000995E80EF91E60E070E0CB010E94D602C0
:103F80002396EEADFFAD2397EF2BE1F0D4011A9607
:103F9000ED91FC9180819181DC01ED91FC91028099
:103FA000F381E02D23964EAD5FAD239729966EAD3C
:103FB0007FAD29970995E80EF91E60E070E0CB010E
:103FC0000E94D602E016F106D9F1F40112A211A264
:103FD000828593850E94A508C85BDF4F0FB6F894D1
:103FE000DEBF0FBECDBFDF91CF911F910F91FF902C
:103FF000EF90DF90CF90BF90AF909F908F907F9089
:104000006F905F904F903F902F900895FA83E983CF
:104010001C821B8284E090E09E838D836DEE71E0B4
:10402000CE0101960E941D170B811C8101501109C0
:1040300029813A810ECF81E090E0958F848F28CF3F
:104040000E940903D40154966D937D938D939C93A4
:104050005797C2CFCF92DF92EF92FF920F931F93A9
:10406000CF93DF93CDB7DEB7C658D1090FB6F8941A
:10407000DEBF0FBECDBF8C01CE010196CF57DF4F03
:1040800099838883C158D040CD57DF4F1982188259
:10409000C358D04080E890E0CB57DF4F99838883A6
:1040A000C558D04063E172E0CE018F579F4F0E9408
:1040B0001D1766E070E0CE018F579F4F0E945C197C
:1040C000B801CE018F579F4F0E944517CD57DF4F44
:1040D00008811981C358D04001501109CF57DF4FD3
:1040E00028813981C158D040D12CC12CF12CE12C30
:1040F00050E040E064E18EE695E00E94F91DCA5769
:10410000DF4F0FB6F894DEBF0FBECDBFDF91CF916A
:104110001F910F91FF90EF90DF90CF900895CF9275
:10412000DF92EF92FF920F931F93CF93DF93CDB760
:10413000DEB7C75AD1090FB6F894DEBF0FBECDBFA8
:104140008EE00E949C028C01CE010196CE55DF4F7D
:1041500099838883C25AD040CC55DF4F1982188288
:10416000C45AD04080E890E0CA55DF4F99838883D5
:10417000C65AD04063E172E0CE018E559F4F0E9437
:104180001D1761E070E0CE018E559F4F0E945C19B3
:10419000B801110F880B990B0E94773120E030E0B5
:1041A0004AEF5EE30E94D6318E010F571F4F23E086
:1041B00045E00E94B72CB801CE018E559F4F0E945A
:1041C0001D17CC55DF4F08811981C45AD0400150CA
:1041D0001109CE55DF4F28813981C25AD040D12CE8
:1041E000C12CF12CE12C50E040E064E18EE695E03A
:1041F0000E94F91DC955DF4F0FB6F894DEBF0FBE00
:10420000CDBFDF91CF911F910F91FF90EF90DF9085
:10421000CF9008951F920F920FB60F9211242F93F3
:104220003F938F939F93AF93BF938091AC039091F3
:10423000AD03A091AE03B091AF033091AB0323E087
:10424000230F2D3758F50196A11DB11D2093AB0307
:104250008093AC039093AD03A093AE03B093AF03F0
:104260008091B0039091B103A091B203B091B303D8
:104270000196A11DB11D8093B0039093B103A0934B
:10428000B203B093B303BF91AF919F918F913F91D0
:104290002F910F900FBE0F901F90189526E8230FB7
:1042A0000296A11DB11DD2CF1F920F920FB60F9291
:1042B00011242F933F934F935F936F937F938F932B
:1042C0009F93AF93BF93EF93FF9381ED93E00E9491
:1042D000E603FF91EF91BF91AF919F918F917F91F5
:1042E0006F915F914F913F912F910F900FBE0F9063
:1042F0001F9018951F920F920FB60F9211242F93B3
:104300008F939F93EF93FF93E091E103F091E2038A
:104310008081E091E703F091E80382FD1BC090816A
:104320008091EA038F5F8F732091EB03821741F036
:10433000E091EA03F0E0EF52FC4F958F8093EA039F
:10434000FF91EF919F918F912F910F900FBE0F9042
:104350001F9018958081F4CF1F920F920FB60F9285
:1043600011242F933F934F935F936F937F938F937A
:104370009F93AF93BF93EF93FF938091B900887F92
:10438000803609F44AC0F0F5883209F4A7C018F560
:10439000803109F49BC0B8F4882309F4F9C088304F
:1043A00009F494C0FF91EF91BF91AF919F918F91CC
:1043B0007F916F915F914F913F912F910F900FBE21
:1043C0000F901F901895883109F488C0803251F7FA
:1043D00080930A0314C0803409F49DC040F48033F4
:1043E000B9F38833F9F680930A0385ECB0C08035C1
:1043F00009F485C0883509F496C0883499F60E947E
:104400008517D0CF883909F48CC038F5883729F062
:1044100050F4883611F0803729F683E080930C033E
:104420001092E50257C0883809F47BC0803919F032
:10443000803809F0B7CF8091E502803208F071C072
:10444000E091E50281E08E0F8093E5028091BB0050
:10445000F0E0EB53FD4F80833DC0803B39F0E0F44A
:10446000803A09F479C0883A09F09CCF84E08093BF
:104470000C031092C4021092C302E0913603F09133
:10448000370309958091C30281110FC081E08093A9
:10449000C3021092A30209C0803C09F4A6CF883C55
:1044A00009F4A3CF883B09F07DCFE091C40281E0FD
:1044B0008E0F8093C402F0E0ED55FD4F8081809314
:1044C000BB009091C4028091C30229C08091E70291
:1044D0008093BB0085EC8093BC0064CF909109036E
:1044E00080910803981758F5E091090381E08E0F39
:1044F00080930903F0E0E851FD4F8081E9CFE0911E
:10450000090381E08E0F809309038091BB00F0E0E6
:10451000E851FD4F8083909109038091080398171B
:10452000C8F285E8D8CFE091090381E08E0F80932F
:1045300009038091BB00F0E0E851FD4F808380913A
:104540000B0381115CCF81E08093E60284EA8093C3
:10455000BC0010920C0326CF85EC8093BC00109217
:104560000C038091E502803230F4E091E502F0E046
:10457000EB53FD4F10826091E50270E0E09134034F
:10458000F091350385EC92E009951092E5020ACF8F
:1045900010920A0334CFDC01ED91FC911197309712
:1045A00061F012962D913C911397E217F30728F4CE
:1045B00001900020E9F7ED93FC930895FC018081C0
:1045C0009181009739F0228133818217930710F48B
:1045D0000C949E2E90E080E00895AF92BF92CF920F
:1045E000DF92EF92FF920F931F93CF93DF93CDB79C
:1045F000DEB7CC5CD1090FB6F894DEBF0FBECDBFDD
:104600005C01CE0189579F4FC953DF4F998388833F
:10461000C75CD040C753DF4F19821882C95CD040B5
:1046200080E490E0C553DF4F99838883CB5CD04012
:1046300060E072E0CE0189539F4F0E941D1765E034
:1046400072E0CE0189539F4F0E94451746E850E023
:104650006AE671E0CE0101960E94E32EC753DF4F58
:10466000C880D980C95CD04081E0C81AD108C9533C
:10467000DF4FE880F980C75CD04006E810E09E017B
:104680002F5F3F4F50E040E061E1C5010E94F91DFE
:10469000C453DF4F0FB6F894DEBF0FBECDBFDF911E
:1046A000CF911F910F91FF90EF90DF90CF90BF902F
:1046B000AF900895E1EDF3E01382128288EE93E06B
:1046C000A0E0B0E084839583A683B78328E431E03B
:1046D0003183208325EC30E03587248724EC30E0DB
:1046E0003787268720EC30E0318B208B21EC30E0BF
:1046F000338B228B22EC30E0358B248B26EC30E0A0
:10470000378B268B118E128E138E148EEEE6F4E00C
:104710001382128284839583A683B7838AE591E00E
:1047200091838083EAE7F4E08AEA91E091838083D1
:104730001282138214821582E0E8F4E09183808370
:104740001282138214821582E6E8F4E0918380835A
:104750001282138214821582ECE8F4E09183808344
:104760001282138214821582E2E9F4E0918380833D
:104770001282138214821582EEE9F4E09183808321
:104780001282138214821582E8E9F4E09183808317
:104790001282138214821582E4EAF4E0918380830A
:1047A0001282138214821582EAEAF4E091838083F4
:1047B0001282138214821582E3EBF5E091838083E9
:1047C0001282138214821582E4EAF5E013821282C7
:1047D00028E731E03183208324E0248728EE33E08A
:1047E00036872587A7E9B5E013969C938E93129799
:1047F00014961D921D921D921C92179719961C9249
:104800001E9218971B961C921E921A971C961C9229
:104810001C971196FC93EE9340E757E160E070E03F
:104820004483558366837783EEE6F5E01182108238
:1048300012821382148215821682178210861186C4
:10484000B387A2871586148617861686108A118A62
:10485000128A138A148A158A168A178A108E118E64
:10486000128E138E158E148E178E168E10A212A213
:1048700011A28FEF9FEF90936D0580936C05E0EB95
:10488000F4E0138212828CE691E09183808387E2C8
:10489000848380E1818782E0828713860895CF93A5
:1048A000DF93CDB7DEB7C659D1090FB6F894DEBF96
:1048B0000FBECDBF789484B5826084BD84B581601D
:1048C00084BD85B5826085BD85B5816085BD8091DB
:1048D0006E00816080936E00109281008091810053
:1048E000826080938100809181008160809381004B
:1048F000809180008160809380008091B10084600D
:104900008093B1008091B00081608093B00080916D
:104910007A00846080937A0080917A00826080932C
:104920007A0080917A00816080937A0080917A0089
:10493000806880937A001092C1000E9443080E9410
:10494000370810923B0310923A03109239031092E9
:1049500038030E949C0485E193E090933703809391
:10496000360386E193E090933503809334031092ED
:10497000B5048091BA04823018F098E09093B504A1
:104980008093B80462E370E080E090E00E94D60279
:104990006091BB0480EB94E00E94600568EE73E0D8
:1049A00080E090E00E94D60260E380EB94E00E94F9
:1049B00083090BE416E4C8010197F1F760E380EB8B
:1049C00094E00E948309C8010197F1F760E380EB4E
:1049D00094E00E94830983E592E00197F1F760E299
:1049E00080EB94E00E9483096091B504606240E02E
:1049F00080EB94E00E949C0984E08093B60440E040
:104A00006CE080EB94E00E949C0940E061E080EB68
:104A100094E00E949C090BE31FE1C8010197F1F7A4
:104A200082E08093B70440E066E080EB94E00E946F
:104A30009C0940E062E080EB94E00E949C09C80180
:104A40000197F1F788E08093BB0460E080EB94E08D
:104A50000E94600540E061E080EB94E00E949C09C8
:104A6000C8010197F1F740E062E080EB94E00E941A
:104A70009C09C8010197F1F761E080E00E94B30949
:104A80000E9443080E94370880916C0590916D0543
:104A900097FF22C00E940903ECEBF4E050E040E0F5
:104AA00026E1249FD001259FB00D11248D010454CF
:104AB0001B4FD801322F1D923A95E9F7608371831D
:104AC000828393834F5F5F4F76964830510549F755
:104AD00010926D0510926C0580916C0590916D059A
:104AE0000897CCF5ECEBF4E090E080E02481358190
:104AF000232B09F0FDC226813781232B09F0F8C250
:104B000026E1289F8001299F100D112404541B4F7A
:104B100088EE93E0A0E0B0E0F80183879487A58752
:104B2000B6878FE890E2958384831286108A178671
:104B300081E0838B0E940903D8016D937D938D934F
:104B40009C93139780916C0590916D0501969093BD
:104B50006D0580936C058EEF809391059DEE90938B
:104B600092052AEB209393058093940580939505F5
:104B700090939605A6E1B2E046E352E0E1E0F0E072
:104B80009F012F5F3F4F6D91E259FA4F83A1862716
:104B900083A3F9012630310514F0E1E0F0E04A1773
:104BA0005B0771F78091A20381112AC010928A03DA
:104BB0001092890388EE93E0A0E0B0E080938B032D
:104BC00090938C03A0938D03B0938E038EE191E0BC
:104BD00090938803809387038AEA91E090939603E9
:104BE0008093950310929703109298031092990363
:104BF00010929A0384E080939F0381E08093A20344
:104C000084E493E0909343038093420380914103B3
:104C10008111ADC060E372E080E090E00E94D602B6
:104C2000DFB6F8940AE112E0EEE2EE2EE2E0FE2EAC
:104C300080913F03811125C0F8018491F70194917F
:104C4000E82FF0E0EE0FFF1FEE50FE4FA591B4915C
:104C50008C91982321F461E08AE00E94D50161E003
:104C60008AE00E9403028CB580618CBD8CB58064A3
:104C70008CBD61E08DE00E94030261E08BE00E9448
:104C8000030280913F038F5F80933F03DFBEF801F3
:104C90000491E02FF0E0EE0FFF1FE450FE4F8591EE
:104CA000949190933E0380933D03F701E490E0924A
:104CB0003C0361E08AE00E9403020E94610680E5F5
:104CC00091E00E94930184E38093D00380E80E94E6
:104CD0002D070E94B60B882309F411C288E00E94B8
:104CE0002D070E94A30B883009F009C280E10E94C1
:104CF0002D070E94A30B803109F001C280E00E94C1
:104D00002D070E94A30B182F8111F9C141E050E03B
:104D1000BE016F5F7F4F8FE190E00E942E0A898174
:104D2000833009F0ECC180E48093400342E06EE1FF
:104D300070E0812F0E94890742E06FE170E0812FCF
:104D40000E9489071F5F143089F740E06EE170E030
:104D5000812F0E94890740E06FE170E0812F0E945F
:104D600089071F5F183089F781E08093410380E550
:104D700091E00E94930146E050E061E975E089E02E
:104D800090E00E947D068AEA91E09A8389831B82E3
:104D90001C821D821E8244E050E0BE016D5F7F4F89
:104DA0008FE090E00E947D06009142031091430342
:104DB000D80192961D921D921D921C929597F80112
:104DC00016A217A210A611A69A961D921D921D92C8
:104DD0001C929D9780E69AEEA0E0B0E086AB97AB80
:104DE000A0AFB1AF80EA9FE0A0E0B0E082AF93AFA8
:104DF000A4AFB5AFD801189686E0FD01282F119217
:104E00002A95E9F79801225F3F4F94E1F901119249
:104E10009A95E9F7E1E9F5E001900D928A95E1F7BD
:104E20002C5C3F4FC157DF4F39832883CF58D04088
:104E3000D9011C920E94462E2FEC37E040E050E052
:104E40000E949432DC01CB010196A11DB11DF80135
:104E500084839583A683B78380839183A283B3835E
:104E60005801F3E4AF0EB11CC5010E94FE0A64E4D0
:104E700070E0C5010E94670E882309F4B1C10E9449
:104E800009032B013C0148EEC42E43E0D42EE12C53
:104E9000F12C52E0252E912C812CC157DF4FA88197
:104EA000B981CF58D0408C918330E1F18111A2C1FA
:104EB000F80184819581A681B7810196A11DB11D5C
:104EC00084839583A683B7830E94090364197509B7
:104ED00086099709A70196010E94FD32A90161E0A8
:104EE000C8010E940F1681E0C157DF4FA881B98128
:104EF000CF58D0408C93F1E08F16910471F20E944C
:104F000009036419750986099709D801D6962D9168
:104F10003D914D915C91D99726173707480759075E
:104F200008F0B9CFC5010E94FE0AF801848195817D
:104F3000A681B7810196A11DB11D84839583A683A7
:104F4000B7830E940903F801FE9660837183828310
:104F500093838A94892809F043C180E591E00E94F7
:104F600093010091420310914303B801625F7F4FA8
:104F70009E012F5F3F4F5901C9010E940C1244E06E
:104F800050E0BE016D5F7F4F8FE090E00E947D0694
:104F9000B8016A5E7F4FC5010E940C1244E050E0E8
:104FA000BE016D5F7F4F81E090E00E947D06B801F9
:104FB0006E5E7F4FC5010E940C1244E050E0BE01BE
:104FC0006D5F7F4F85E090E00E947D06B801625ED4
:104FD0007F4FC5010E940C128B819C81AD81BE81E7
:104FE00080939A0490939B04A0939C04B0939D0497
:104FF0000E94B1027F7380910001909101016827A6
:105000007927709301016093000168EE73E080E0FE
:1050100090E00E94D6028AEA91E09A8389831B82FB
:105020001C821D821E8280E591E00E94930144E073
:1050300050E0BE016D5F7F4F8FE090E00E942E0A2E
:1050400086E192E090937B0580937A050E940903A4
:10505000DC01CB0188589341A109B10980938205F5
:1050600090938305A0938405B093850580937E0576
:1050700090937F05A0938005B0938105809386056A
:1050800090938705A0938805B0938905E0917805F2
:10509000F091790587E392E09187808780E590E041
:1050A0009387828780917805909179050E94A50861
:1050B0001092900510928F050E9409036B017C01EC
:1050C00080918F0590919005019709F472C10E941B
:1050D00009036C197D098E099F09603576448105A5
:1050E000910508F066C18EE695E00E948119E8CF2F
:1050F000019676968830910509F0F8CC2CCD87E39F
:105100008093D00380E80E942D070E94B60B88236D
:1051100029F188E00E942D070E94A30B8830F1F44A
:1051200080E10E942D070E94A30B182F8031B1F45B
:1051300080E00E942D070E94A30B81110FC041E067
:1051400050E0BE016F5F7F4F89E390E00E942E0A1E
:105150008981843019F41093400306CE83E3809351
:10516000D00380E80E942D070E94B60B8823B1F17E
:1051700080E10E942D070E94A30B803179F582E126
:105180000E942D070E94A30B823141F580E00E940E
:105190002D070E94A30B811121C084E0809340035E
:1051A00015E5C257DF4F1883CE58D04041E050E09C
:1051B000BE0162577F4F8BE190E00E947D06C3578E
:1051C000DF4F1883CD58D04041E050E0BE01635717
:1051D0007F4F8AE190E00E947D06C6CD1092D003F9
:1051E00060E177E280E090E00E94D602F0E0E0E04B
:1051F0000995FFCF843019F5F80184819581A68146
:10520000B7810196A11DB11D84839583A683B783C1
:105210000E9409036419750986099709A701960177
:105220000E94FD32A90163E0C8010E940F16C15718
:10523000DF4FA881B981CF58D0402C925CCE81300D
:1052400079F5F80142AD53AD64AD75AD9E012F5FA8
:105250003F4FC8010E94BD17382EF2E08F139EC049
:1052600089819A81AB81BC81F80184839583A6836F
:10527000B7830E9409036419750986099709A70174
:1052800096010E94FD32A90163E0C8010E940F1639
:10529000C157DF4FA881B981CF58D0403C922BCE67
:1052A000823009F028CEF80142AD53AD64AD75AD42
:1052B0009E012F5F3F4FC8010E94BD17382EF5E0B9
:1052C0008F1361C0E3E0C157DF4FA881B981CF5888
:1052D000D040EC93F80182A193A1A4A1B5A1892BA0
:1052E0008A2B8B2B41F424E833E040E050E022A3EA
:1052F00033A344A355A3F80186A197A1A0A5B1A506
:10530000892B8A2B8B2B61F482A193A1A4A1B5A137
:10531000B695A7959795879586A397A3A0A7B1A7BC
:10532000F80182A593A5A4A5B5A5892B8A2B8B2B63
:10533000A9F482A193A1A4A1B5A1AC01BD0123E070
:1053400076956795579547952A95D1F7841B950BC8
:10535000A60BB70B82A793A7A4A7B5A7F80186A1B0
:1053600097A1A0A5B1A586A797A7A0ABB1AB82A531
:1053700093A5A4A5B5A582AB93ABA4ABB5AB88248C
:105380008394912CB8CDF6E08F1308C0C157DF4F3E
:10539000A881B981CF58D0401C92ADCDBFEF3B1250
:1053A000AACDC157DF4FE881F981CF58D040108294
:1053B000A2CD80918F0590919005019709F072CE52
:1053C00088248A94912C22242394312C8FE00E94EB
:1053D0009C029695879596958795B401681B790BE5
:1053E00083E00E943F0264E670E080E090E00E946B
:1053F000D602C957DF4F19821882C758D040C75705
:10540000DF4F19821882C958D040C557DF4F198223
:105410001882CB58D04070E060E0CE0189579F4F92
:105420000E945D17C957DF4F28813981C758D04086
:1054300081111FC22115310519F0C9010E94712D7A
:10544000C957DF4F19821882C758D040C557DF4F60
:1054500019821882CB58D040C757DF4F1982188263
:10546000C958D0408EE00E949C02CF57DF4F19826E
:105470001882C158D040CD57DF4F19821882C358C7
:10548000D040CB57DF4F19821882C558D040BC019D
:10549000990F880B990B0E94773120E030E04AEF9A
:1054A0005EE30E94D631850122E044E00E94B72CE1
:1054B0007C01009709F4F4C1FC0101900020E9F798
:1054C00031978F01081B190BB801CE018F579F4FE1
:1054D0000E945D17CF57DF4F28813981C158D040D6
:1054E0008111D3C12115310519F0C9010E94712D17
:1054F000CF57DF4F19821882C158D040CB57DF4FAA
:1055000019821882C558D040CD57DF4F19821882B2
:10551000C358D040C957DF4F88819981C758D040C0
:10552000009709F4C9C1CF57DF4F68817981C1580D
:10553000D0406115710509F4BDC1C757DF4F4881DF
:105540005981C958D040CB57DF4F28813981C55880
:10555000D0404217530708F4ADC10E949E34CB5788
:10556000DF4F88819981C558D040C557DF4F998357
:105570008883CB58D040CB57DF4F19821882C5584B
:10558000D040CF57DF4F88819981C158D0400097D4
:1055900011F00E94712D61E080E00E94B309C557AF
:1055A000DF4F48815981CB58D040C957DF4F6881C0
:1055B0007981C758D04080EB94E00E9468030E9434
:1055C00037088EE695E00E9481190E940903CD56A6
:1055D000DF4F688379838A839B83C359D0408CEBE8
:1055E000E82E84E0F82E8701D80155961C921E9271
:1055F000549714968D919C911597892B31F416969A
:105600008D919C91892B09F451C0D8012D913D9128
:105610004D915C911397C157DF4F288339834A839B
:105620005B83CF58D040CD56DF4F688179818A8126
:105630009B81C359D040621B730B840B950B1B9647
:105640004D905D906D907C901E9764157505860554
:10565000970560F1411451046104710409F45DC1BE
:10566000A30192010E94FD32C301B2010E943333B3
:10567000C157DF4F288139814A815B81CF58D040A3
:10568000620F731F841F951FD8016D937D938D93B7
:105690009C931397F8018389882341F027853089EB
:1056A0002115310509F047C1358A248A0A5E1F4F4A
:1056B0002CE635E02017310709F096CF10E000E026
:1056C000D70154968D919C915597892BE9F11A96A3
:1056D0008C911A97882309F445C11696ED91FC9197
:1056E000179718968D919C910995F7018489958952
:1056F000029751F580916C0590916D05892B21F1F0
:1057000084819581892B21F486819781892BE1F011
:1057100026E1209FF001219FF00D1124E454FB4F5E
:10572000DF011D922A95E9F70E940903F7016083C2
:1057300071838283938380916C0590916D050197AD
:1057400090936D0580936C050F5F1F4FF6E1EF0E90
:10575000F11C0830110509F0B3CF8EE00E949C02C5
:10576000BC01990F880B990B0E94773120E030E043
:105770004AEF5EE30E94D63120E030E04CE052E494
:105780000E942E3318160CF05DC08091AA03882366
:1057900009F458C01092AA0360E085E00E94D50188
:1057A000CF57DF4FB982A882C158D040CD57DF4FC5
:1057B00019821882C358D04020E830E0CB57DF4F21
:1057C00039832883C558D04063E172E0CE018F57FA
:1057D0009F4F0E941D1765E070E0CE018F579F4FCD
:1057E0000E945C1970E060E0CE018F579F4F0E94CD
:1057F0005C19CD57DF4F08811981C358D040015043
:105800001109CF57DF4F28813981C158D040D12CA1
:10581000C12CF12CE12C50E040E064E18EE695E0F3
:105820000E94F91D83E492E00E942A208AE692E019
:105830000E942A2060E088E00E94B3098FEB91E08B
:105840000E942A09C957DF4F88819981C758D040E3
:10585000009711F00E94712D40E050E0452B09F4B3
:10586000B5CD0E94D203882309F4B0CD0E94000078
:10587000ADCDC557DF4F19821882CB58D04069E6AD
:1058800072E0C9010E949E34EDCDCB57DF4F1983E2
:105890000883C558D040B701C9010E949E343ACE52
:1058A000CF57DF4F88819981C158D040009709F0C8
:1058B0001DCE1ECE0E94712DCF57DF4F888199815A
:1058C000C158D040C957DF4F99838883C758D0400B
:1058D000CD57DF4F88819981C358D040C757DF4FDC
:1058E00099838883C958D040CB57DF4F88819981ED
:1058F000C558D040C557DF4F99838883CB58D040D7
:10590000CF57DF4F19821882C158D040CD57DF4F93
:1059100019821882C358D0402ECECD56DF4F288131
:1059200039814A815B81C359D0402D933D934D937A
:105930005C931397AFCED801818992898217930720
:1059400008F0B4CE358A248A0196928B818B821717
:10595000930708F4ABCEE2E0F0E05596FC93EE93AB
:105960005497A4CE1496ED91FC910995BECEEF927A
:105970000F931F93CF93DF93E80134E047FD34E1A9
:10598000042E000C550B57FF03C05195419551094A
:10599000E32E022F242FAE010E942E2FCE01DF9185
:1059A000CF911F910F91EF9008950F931F93CF9375
:1059B000DF938230910510F482E090E0E091BB0526
:1059C000F091BC0530E020E0B0E0A0E0309799F421
:1059D0002115310509F44AC0281B390B2430310543
:1059E000D8F58A819B816115710589F1FB0193834B
:1059F0008283FE0111C040815181028113814817C9
:105A00005907E0F04817590799F4109761F012967A
:105A10000C93129713961C933296CF01DF91CF917E
:105A20001F910F9108950093BB051093BC05F4CF0F
:105A30002115310551F04217530738F0A901DB0158
:105A40009A01BD01DF01F801C1CFEF01F9CF9093B9
:105A5000BC058093BB05CDCFFE01E20FF31F819300
:105A600091932250310939832883D7CF2091B905EA
:105A70003091BA05232B41F42091040130910501A6
:105A80003093BA052093B9052091020130910301AA
:105A90002115310541F42DB73EB7409106015091D3
:105AA0000701241B350BE091B905F091BA05E21707
:105AB000F307A0F42E1B3F0B2817390778F0AC0131
:105AC0004E5F5F4F2417350748F04E0F5F1F50930E
:105AD000BA054093B905819391939FCFF0E0E0E040
